:020000040000fa
:10000000f07f00202b0f00004b1100004b1100006f
:1000100000000000000000000000000000000000e0
:100020000000000000000000000000004b11000074
:1000300000000000000000004b1100004b11000008
:100040004b1100004b1100004b1100004b11000040
:100050004b110000ad0500004b1100004b110000da
:100060004b1100004b1100004b1100004b11000020
:100070004b1100004b1100004b1100004b11000010
:100080004b1100004b1100004b1100004b11000000
:100090004b1100004b1100004b1100004b110000f0
:1000a0004b1100004b1100004b1100004b110000e0
:1000b0004b1100004b1100004b1100004b110000d0
:1000c0004b1100004b1100004b1100004b110000c0
:1000d0004b1100004b1100004b1100004b110000b0
:1000e0004b1100004b1100004b1100004b110000a0
:1000f0004b1100004b1100004b1100004b11000090
:100100004b1100004b1100004b1100004b1100007f
:100110004b1100004b1100004b1100004b1100006f
:100120004b1100004b1100004b1100004b1100005f
:100130004b1100004b1100004b1100004b1100004f
:100140004b1100004b1100004b1100004b1100003f
:0c0150004b1100004b1100004b1100008f
:020000040000fa
:10015c00f8b5c046f8bc08bc9e4670479910000024
:10016c00f8b5c046f8bc08bc9e4670477510000038
:020000040000fa
:10017c0080b582b000af0200fb1d1a70fb1d1b780e
:10018c007f2b12d8fb1d1b781a001f231a4011005d
:10019c004ef20013cef20003fa1d127852b252093d
:1001ac000120884001009200d150c046bd4602b0eb
:1001bc0080bd90b583b000af02003960fb1d1a7092
:1001cc00fb1d1b787f2b2fd84ef20013cef20003b1
:1001dc00fa1d127852b29208c0329200d358fa1d0e
:1001ec001278110003220a40d200ff2191400a002c
:1001fc00d2431a4010003b689b01ff221a40fb1da2
:10020c001b78190003230b40db009a4011004ef2bf
:10021c000013cef20003fa1d127852b29208014379
:10022c00c0329200d15037e04ef60053cef20003ac
:10023c00fa1d127811000f220a40083a9208063271
:10024c0092009b1804331b68fa1d127811000322cc
:10025c000a40d200ff2191400a00d2431a401000fc
:10026c003b689b01ff221a40fb1d1b7819000323de
:10027c000b40db009a404ef60053cef20003f91d02
:10028c0009780c000f2121400839890802430631f6
:10029c0089005b1804331a60c046bd4603b090bd9c
:1002ac0080b582b000af78607b68012213400bb937
:1002bc00012300e000231800bd4602b080bd80b5cc
:1002cc0082b000af78607b681800fff7e9ff03008d
:1002dc0033b97b68013b002b00da01335b1004e07f
:1002ec007b68002b00da01335b101800bd4602b0ae
:1002fc0080bd80b582b000af7860396043f20023d6
:10030c00c4f200037a684021d2019a183b68d318d2
:10031c005b1801221a7043f20023c4f200037a68be
:10032c003021d2019a183b68d3185b1801221a703d
:10033c00c046bd4602b080bd80b582b000af7860cb
:10034c00396043f20023c4f20003396840200a00ec
:10035c00d20152189b181b1801221a7043f2002369
:10036c00c4f20003396830200a00d20152189b18dd
:10037c001b1801221a70c046bd4602b080bd90b554
:10038c0083b000af7860396001223b689a4043f239
:10039c000023c4f2000311007a68d2019b180833c1
:1003ac00196001223b689a4043f20023c4f2000317
:1003bc0011007a68d2019b181433196043f20023a0
:1003cc00c4f200037a684021d2019a183b68d31812
:1003dc005b1803221a7043f20024c4f200043b6839
:1003ec001800fff76cff01007b683022db01e3187b
:1003fc005b189b1800221a70c046bd4603b090bd16
:10040c0090b583b000af7860396001223b689a40a8
:10041c0043f20023c4f2000311007a68d2019b1846
:10042c000833196001223b689a4043f20023c4f25e
:10043c00000311007a68d2019b181433196043f23f
:10044c000023c4f200037a684021d2019a183b6859
:10045c00d3185b1803221a7043f20024c4f2000470
:10046c003b681800fff72bff01007b683022db0193
:10047c00e3185b189b1890221a70c046bd4603b057
:10048c0090bd90b583b000af7860396001223b68b5
:10049c009a4043f20023c4f2000311007a68d2019f
:1004ac009b180833196001223b689a4043f20023e1
:1004bc00c4f2000311007a68d2019b18143319603e
:1004cc0043f20023c4f200037a684021d2019a1847
:1004dc003b68d3185b1803221a7043f20024c4f251
:1004ec0000043b681800fff7eafe01007b6830222d
:1004fc00db01e3185b189b1800221a70c046bd463e
:10050c0003b090bd90b583b000af7860396043f212
:10051c000023c4f200037a68d2019b18083300222e
:10052c001a6043f20023c4f200037a68d2019b18cc
:10053c00083307221a6001223b689a4043f20023d9
:10054c00c4f2000311007a68d2019b1818331960a9
:10055c003b681800fff7a4fe0300012b0ed143f2f9
:10056c000024c4f200043b681800fff7a8fe030047
:10057c00b022e3189b1800221a700de043f20024fd
:10058c00c4f200043b681800fff799fe0300b02288
:10059c00e3189b1800221a70c046bd4603b090bdec
:1005ac0080b500afc04643f20023c4f200031b6abf
:1005bc0042f60023c4f200035a6942f60023c4f247
:1005cc00000301210a435a6142f60023c4f20003de
:1005dc005a6942f60023c4f2000301210a435a610e
:1005ec0000f035fbc046bd4680bd80b500af002194
:1005fc000020fff787ff01210020fff783ff42f661
:10060c000023c4f2000301221a70c04642f60023f4
:10061c00c4f200035b6801221340012bf6d042f6b2
:10062c000023c4f200039922da6142f60023c4f2db
:10063c00000303221a6342f60023c4f20003ff22d4
:10064c00c0f201025a6342f60023c4f200030322f3
:10065c001a6142f60023c4f2000302221a70c0464b
:10066c0042f60023c4f200035b6802221340022b03
:10067c00f6d042f60023c4f200035a6942f6002376
:10068c00c4f2000302210a435a6142f60023c4f269
:10069c0000035a6942f60023c4f2000301210a4305
:1006ac005a61c046bd4680bd80b500afbff35f8fb9
:1006bc0062b603210320fff77cfd0320fff758fdf2
:1006cc0004210420fff775fd0420fff751fdc046ff
:1006dc00bd4680bd80b500af41f60043c4f20003b7
:1006ec00e42240219950c04641f60043c4f2000375
:1006fc00e4229b5840221340002bf5d0c046bd4647
:10070c0080bd80b582b000af786043f20043c4f284
:10071c00002301221a60c04643f20043c4f20023b6
:10072c009b6801229343002bf6d143f20043c4f2a1
:10073c00002341f200721a6043f20043c4f200231a
:10074c0000225a6143f20043c4f200230222c0f299
:10075c000202da6343f20043c4f2002340f2d412e3
:10076c001a6443f20043c4f200237a689a6443f299
:10077c000043c4f200231a6843f20043c4f200237e
:10078c0002210a431a60c04643f20043c4f200231c
:10079c009b6802229343002bf6d1c046bd4602b0a3
:1007ac0080bd80b582b000af40f20043c4f20003bc
:1007bc0001229a7140f20043c4f2000302229a70a3
:1007cc0000e0c04640f20043c4f200039b79dbb268
:1007dc001a0001231340002bf3d040f20043c4f263
:1007ec00000301229a7145f20003c4f200130422a3
:1007fc005a6041f60003c4f2000302221a6241f26d
:10080c000003c4f2000300221a86c04641f2000322
:10081c00c4f200031a6980235b041a4080235b0432
:10082c009a42f3d1fb1d00221a70fb1d1b789b0210
:10083c001b041a0c41f20003c4f2000340f2002125
:10084c000a435a63c04641f20003c4f200031a691a
:10085c0080235b041a4080235b049a42f3d141f25b
:10086c000003c4f2000302221a86c04641f20003c0
:10087c00c4f200031a6980235b041a4080235b04d2
:10088c009a42f3d141f60043c4f2000340f207123e
:10089c00c0f201021a6200e0c04641f60043c4f205
:1008ac0000035b6804221340002bf5d141f6004392
:1008bc00c4f20003f02240219950c04641f6004397
:1008cc00c4f20003f0229b5840221340402bf5d178
:1008dc00c046bd4602b080bd80b500af43f60003f4
:1008ec00c4f2002301221a70c04643f60003c4f27e
:1008fc0000231b8c9bb21a0001231340012bf4d054
:10090c0043f60003c4f2002302225a7043f600039c
:10091c00c4f2002303225a7343f60003c4f20023eb
:10092c0005229a7043f60003c4f2002300221a81b8
:10093c0043f60003c4f2002320225a8143f600033d
:10094c00c4f2002307229a71c04643f60003c4f296
:10095c0000231b8c9bb2002bf7d1c046bd4680bd3b
:10096c0080b500af43f60003c4f200231b78dab263
:10097c0043f60003c4f2002302210a43d2b21a70d8
:10098c00c04643f60003c4f200231b8c9bb2002b21
:10099c00f7d1c046bd4680bd80b500af43f600031d
:1009ac00c4f200231b7edab243f60003c4f2002328
:1009bc0002210a43d2b21a76c04643f60003c4f2af
:1009cc0000231b8c9bb21a0040f20043134040f2f0
:1009dc0000429342f1d0c046bd4680bd80b500af09
:1009ec0043f60003c4f200239b8c9bb21800bd4657
:1009fc0080bd80b582b000af43f60003c4f2002383
:100a0c009b79dbb21a0001231a40fb1d511e8a414f
:100a1c001a70fb1d1b782bb143f60003c4f20023a4
:100a2c0001229a71fb1d1b781800bd4602b080bdd7
:100a3c0080b584b000af78600de00023fb6002e06d
:100a4c00fb680133fb60fb6840f660229342f7dde4
:100a5c007b68013b7b607b68002beedcc046bd46af
:100a6c0004b080bd80b500af41f60043c4f2002352
:100a7c0080225a7141f60043c4f200239b8a9bb238
:100a8c001800bd4680bd80b582b000af786039607b
:100a9c00fff720fefff785fefff71efffff760ff55
:100aac0040f27c03c2f200031b681800fff729fe1a
:100abc0004210020fff740fc03210020fff75ffc1e
:100acc0006210020fff79cfc03210120fff7d9fc35
:100adc0002210120fff70dfc40f60003c4f20003d5
:100aec005a6940f60003c4f2000340f200410a4385
:100afc005a6141f60043c4f20003dc2240219950b4
:100b0c00c04641f60043c4f20003dc229b589b0113
:100b1c00002bf6d041f60043c4f2002301221a60e8
:100b2c00c04641f60043c4f200231b690122134066
:100b3c00002bf6d141f60043c4f2002300221a60c8
:100b4c0041f60043c4f2002310221a6041f6004320
:100b5c00c4f2002340f200721a6041f60043c4f262
:100b6c00002301221a7341f60043c4f2002345f618
:100b7c008d329a8341f60043c4f200231a6841f681
:100b8c000043c4f2002302210a431a6041f60043d9
:100b9c00c4f20003902240219950fff726fdfff785
:100bac0083fdfff75fff020041f60043c4f2002310
:100bbc009b8b9bb25b089bb29a4228da43f20043b0
:100bcc00c4f200231b6802221340abb943f200436a
:100bdc00c4f200231a6843f20043c4f2002302213a
:100bec000a431a60c04643f20043c4f200239b68d8
:100bfc0002221340002bf6d143f20043c4f200232f
:100c0c0040f27c02c2f2000212689a64c9e743f215
:100c1c000043c4f200231b6802221340002bc0d0f7
:100c2c0043f20043c4f200231a6843f20043c4f2b7
:100c3c00002302218a431a60c04643f20043c4f2e7
:100c4c0000239b6802221340002bf6d1a9e7b0b514
:100c5c0000af40f27c03c2f200031b682e229a42c2
:100c6c009b415b42dab240f26c03c2f200031b6898
:100c7c0059424b41dbb21340dbb2f3b140f27c037f
:100c8c00c2f200031b68180000f04cfa46f26762cf
:100c9c00c6f2666246f26663c4f2570300f05afa73
:100cac0003000c001800210000f016fa020040f2bc
:100cbc007c03c2f200031a6040e040f27c03c2f2f3
:100ccc0000031b682e2b06d940f26c03c2f2000302
:100cdc001b68012b32d140f27c03c2f200031b686b
:100cec00180000f01ffa4cf6cd42ccf6cc4248f678
:100cfc00cc43c4f2610300f02ef803000c00180082
:100d0c00210000f0e9f9020040f27c03c2f200037a
:100d1c001a6040f26c03c2f2000301221a6040f226
:100d2c007c03c2f200031b6840f24712934205d9c0
:100d3c0040f26c03c2f2000300221a6043f200433b
:100d4c00c4f2002340f27c02c2f2000212689a64e0
:060d5c00c046bd46b0bd1b
:020000040000fa
:100d6200f0b40125ed070f005f405ad48b4200d149
:100d7200824205d950404240504059404b40594070
:100d82004e18760ddf187f0d3bd0741c640529d0f8
:100d9200f41b352c26d80e0ddb022b43db0ac902cd
:100da2002943c9121700202c1ed2e741e2405740c6
:100db200e3415a40a340e3405a400024801859417d
:100dc2000ad3b21c520521d0c207012f624117007b
:100dd2004008cb0718434908013636054208af419f
:100de20060417141f0bc7047203c06d01f00e741d2
:100df200e3405f400024012a6741c0186141ebd300
:100e0200dfe7002eeed129400020ebe70136310565
:100e12000020e7e7e742e5d10020c143090dc904fc
:100e2200e0e76b400e00871a9e4104d26e40c01b61
:100e3200b141d21973414e18df18ac0ae642e9d229
:100e4200760d7f0d31d0f41b362ccbd8b4460e0d67
:100e5200db022b43db0ac9022943c90a012c32d81f
:100e620004d1d4075208df073a435b08ef0a644211
:100e7200904199411ed0002239424dd1241940415e
:100e820049410124394204d101340018494139420f
:100e9200fad06246a24204d9361b013e36058919b0
:100ea200a0e7f10ac90700209ce736429ad1002048
:100eb200002197e70200224394d0b842ded201001b
:100ec20020002024e3d1202c13dd203ce241170036
:100ed200a240e2405740e3415a40a340e3405a4017
:100ee200012fbf410137174300227c4298419141b3
:100ef2000ce01700e741e2405740e3415a40a3406b
:100f0200e3405a407c429041994100220f0303d2b0
:100f1200013e241940414941013e36054708ac4192
:080f220050417141f0bc704721
:020000040000fa
:100f2a0040f20003c0f2000323b140f20003c0f212
:100f3a000003984740f20003c0f2000323b140f2d5
:100f4a000003c0f20003984700f0aff840f2000334
:100f5a00c0f200037f2293434ef60052cef2000203
:100f6a00936041f21903c0f20003984740f200036c
:100f7a00c0f2000323b140f20003c0f20003984715
:100f8a0040f20003c0f2000323b140f20003c0f2b2
:0e0f9a000003984700210020fff776fdfee7d8
:020000040000fa
:100fa800780000200400000001000000000000009c
:100fb800500000201c000000000000007c00002001
:100fc8000400000001000000ea0000006c0000209e
:100fd8000800000000000000000000205000000091
:100fe8000000000074000020040000000000000061
:100ff8008000002004000000010000000000000044
:1010080000000000000000006666666666666666a8
:020000040000fa
:1010180000230e4a10b513600d4a0e4c13600e4a99
:1010280013600e4a13600e4a13600e4a536213612e
:101038000133936000f0a4f800f0a2f80a4b9c4238
:1010480000d310bd08cc9847f8e7c04674000020cc
:101058000c000020680100000800002000000020ab
:0c10680004000020100000206c010000bb
:020000040000fa
:1010740010b5054c227832b9044b13b1044800e092
:1010840000bf0123237010bd5000002000000000a9
:1010940000000000034b10b51bb10349034800e0f6
:1010a40000bf10bd0000000054000020000000003c
:020000040000fa
:1010b40010b50948016811b9436803b910bd0400ab
:1010c4008368064a9bb20c349b009b5842682000fc
:1010d400984780002018ede7a80f00004c1100008d
:020000040000fa
:1010e4004a0010d2520d03231b02ff33d21a0ad432
:1010f40052421f3209d4400dc90208430123db07c1
:0e1104001843d040704700207047d017704746
:020000040000fa
:10111200002310b5934206d103201840421e90418d
:0e1122009b08c01810bdc45ccc540133f2e72a
:020000040000fa
:1011300040f21d42010007d002d4013a0018fcd54c
:0a1140001205c30a40059918704714
:020000040000fa
:02114a00fee7be
:020000040000fa
:10114c0073110000131100008511000085110000bf
:04115c0085110000f9
:020000040000fa
:10116000f0b40125ed076b4040f66954c0f200046d
:02117000204716
:020000040000fa
:101172008a18914201d10020704700230b7001317f
:02118200f7e78d
:020000040000fa
:041184000020704790
:020000040000fa
:021188007047ae
:00000001FF
