:020000040000fa
:10000000f07f00201d1700009b1700009b170000c9
:1000100000000000000000000000000000000000e0
:100020000000000000000000000000009b1700001e
:1000300000000000000000009b1700009b1700005c
:100040009b1700009b1700009b1700005d1100002c
:10005000af1100009b1700009b1700009b170000ca
:100060009b1700009b1700009b1700009b170000c8
:100070009b1700009b1700009b1700009b170000b8
:100080009b1700009b1700009b1700009b170000a8
:100090009b1700009b1700009b1700009b17000098
:1000a0009b1700009b1700009b1700009b17000088
:1000b0009b1700009b1700009b1700009b17000078
:1000c0009b1700009b1700009b1700009b17000068
:1000d0009b1700009b1700009b1700009b17000058
:1000e0009b1700009b1700009b1700009b17000048
:1000f0009b1700009b1700009b1700009b17000038
:100100009b1700009b1700009b1700009b17000027
:100110009b1700009b1700009b1700009b17000017
:100120009b1700009b1700009b1700009b17000007
:100130009b1700009b1700009b1700009b170000f7
:100140009b1700009b1700009b1700009b170000e7
:0c0150009b1700009b1700009b1700008d
:020000040000fa
:10015c00f8b5c046f8bc08bc9e4670471d18000098
:10016c00f8b5c046f8bc08bc9e467047f9170000ad
:020000040000fa
:10017c0080b582b000af0200fb1d1a70fb1d1b780e
:10018c007f2b12d8fb1d1b781a001f231a4011005d
:10019c004ef20013cef20003fa1d127852b252093d
:1001ac000120884001009200d150c046bd4602b0eb
:1001bc0080bd90b583b000af02003960fb1d1a7092
:1001cc00fb1d1b787f2b2fd84ef20013cef20003b1
:1001dc00fa1d127852b29208c0329200d358fa1d0e
:1001ec001278110003220a40d200ff2191400a002c
:1001fc00d2431a4010003b689b01ff221a40fb1da2
:10020c001b78190003230b40db009a4011004ef2bf
:10021c000013cef20003fa1d127852b29208014379
:10022c00c0329200d15037e04ef60053cef20003ac
:10023c00fa1d127811000f220a40083a9208063271
:10024c0092009b1804331b68fa1d127811000322cc
:10025c000a40d200ff2191400a00d2431a401000fc
:10026c003b689b01ff221a40fb1d1b7819000323de
:10027c000b40db009a404ef60053cef20003f91d02
:10028c0009780c000f2121400839890802430631f6
:10029c0089005b1804331a60c046bd4603b090bd9c
:1002ac0080b500af43f20023c4f2000384229a58b5
:1002bc0043f20023c4f2000304210a4384215a5060
:1002cc0043f20023c4f2000398229a5843f200230d
:1002dc00c4f2000304210a4398215a5043f200232c
:1002ec00c4f20003c2229b5cdab243f20023c4f2d4
:1002fc00000303210a43d1b2c222995443f20023d2
:10030c00c4f20003b1229b5cdab243f20023c4f2c4
:10031c00000301210a43d1b2b1229954c046bd4613
:10032c0080bd80b500af43f20023c4f200039a688d
:10033c0043f20023c4f2000308210a439a6043f2fb
:10034c000023c4f200035a6943f20023c4f20003f1
:10035c0008210a435a6143f20023c4f200034322ea
:10036c009b5cdab243f20023c4f2000303210a437c
:10037c00d1b24322995443f20023c4f20003312238
:10038c009b5cdab243f20023c4f2000370214942b1
:10039c000a43d1b231229954c046bd4680bd80b5c6
:1003ac0000af43f20023c4f200039a6843f2002327
:1003bc00c4f2000340210a439a6043f20023c4f2c2
:1003cc0000035a6943f20023c4f2000340210a439c
:1003dc005a6143f20023c4f2000346229b5cdab25a
:1003ec0043f20023c4f2000303210a43d1b2462294
:1003fc00995443f20023c4f2000333229b5cdab21b
:10040c0043f20023c4f2000309210a43d1b2332280
:10041c009954c046bd4680bd80b500af43f2002361
:10042c00c4f2000388229a5843f20023c4f200035a
:10043c0008210a4388215a5043f20023c4f20003d6
:10044c0094229a5843f20023c4f2000308210a4371
:10045c0094215a5043f20023c4f20003c3229b5c44
:10046c00dab243f20023c4f2000303210a43d1b2ef
:10047c00c322995443f20023c4f20003b1229b5cc3
:10048c00dab243f20023c4f20003702149420a435a
:10049c00d1b2b1229954c046bd4680bd80b500afe3
:1004ac0043f20023c4f200035a6843f20023c4f25f
:1004bc00000301210a435a6043f20023c4f20003f3
:1004cc0040229b5cdab243f20023c4f20003072102
:1004dc000a43d1b24022995443f20023c4f20003e0
:1004ec009a6943f20023c4f2000301210a439a6182
:1004fc0043f20022c4f2000243f20023c4f20003d0
:10050c003021525cd1b230229954c046bd4680bdd8
:10051c0080b500af43f20023c4f200035a6843f2e3
:10052c000023c4f2000302210a435a6043f2002361
:10053c00c4f2000341229b5cdab243f20023c4f202
:10054c00000307210a43d1b24122995443f20023fc
:10055c00c4f200039a6943f20023c4f2000302219f
:10056c000a439a6143f20022c4f2000243f20023d0
:10057c00c4f200033021525cd1b230229954c046ef
:10058c00bd4680bd80b500af43f60003c4f2002326
:10059c001b78dab243f60003c4f2002301210a43ac
:1005ac00d2b21a70c04643f60003c4f200231b8c6f
:1005bc009bb21a0001231340012bf4d043f6000325
:1005cc00c4f200235b78dab243f60003c4f20023d2
:1005dc0002210a43d2b25a7043f60003c4f200233c
:1005ec005b7bdab243f60003c4f2002303210a4317
:1005fc00d2b25a7343f60003c4f200239b78dab2ea
:10060c0043f60003c4f2002305210a43d2b29a70c8
:10061c0043f60003c4f200231b899ab243f600038d
:10062c00c4f200230a210a4392b21a8143f6000352
:10063c00c4f2002320225a8143f60003c4f20023a3
:10064c009b79dab243f60003c4f2002307210a4374
:10065c00d2b29a71c04643f60003c4f200231b8c3d
:10066c009bb2002bf7d1c046bd4680bd80b500af14
:10067c0043f60003c4f200231b78dab243f60003fe
:10068c00c4f2002302210a43d2b21a70c04643f6c8
:10069c000003c4f200231b8c9bb2002bf7d1c04685
:1006ac00bd4680bd80b500af43f60003c4f2002305
:1006bc001b7edab243f60003c4f2002302210a4384
:1006cc00d2b21a76c04643f60003c4f200231b8c48
:1006dc009bb21a0040f20043134040f20042934296
:1006ec00f1d0c046bd4680bd80b500af43f60003d7
:1006fc00c4f200239b8c9bb21800bd4680bd80b514
:10070c0082b000af43f60003c4f200239b79dbb246
:10071c001a0001231a40fb1d511e8a411a70fb1d41
:10072c001b786bb143f60003c4f200239b79dab259
:10073c0043f60003c4f2002301210a43d2b29a719a
:10074c00fb1d1b781800bd4602b080bd80b584b07f
:10075c0000af78600de00023fb6002e0fb68013322
:10076c00fb60fb6840f660229342f7dd7b68013b3f
:10077c007b607b68002beedcc046bd4604b080bdc0
:10078c0080b500af41f60043c4f2002380225a71b9
:10079c0041f60043c4f200239b8a9bb21800bd466d
:1007ac0080bd80b582b000af786039603b68012baa
:1007bc0000d0aee040f27803c2f2000300221a60cf
:1007cc009ee040f27803c2f20003196840f28c02fa
:1007dc00c2f200020b005b005b189b009b581800d8
:1007ec0001f03cf8031c7968181c00f094fe031c03
:1007fc00181c01f046f80300dbb2180000f086fa72
:10080c0003001a0043f20043c4f200239a6440f23e
:10081c007803c2f20003196840f28c02c2f20002a3
:10082c000b005b005b189b00d31804331b6818008b
:10083c0001f014f8031c7968181c00f06cfe031c02
:10084c00181c01f01ef80300dbb2180000f05efa71
:10085c0003001a0043f20043c4f200235a6440f22e
:10086c007803c2f20003196840f28c02c2f2000253
:10087c000b005b005b189b00d31808331b68180037
:10088c0000f0ecff031c7968181c00f044fe031cfc
:10089c00181c00f0f6ff0300dbb2180000f036fa6b
:1008ac0003001a0043f20043c4f200231a6540f21d
:1008bc007803c2f200031a6840f27c03c2f2000310
:1008cc001a60c046fff75cff020041f60043c4f219
:1008dc0000239b8b9bb29a42f4db40f27403c2f26e
:1008ec0000031b68012b00d1c5e040f27803c2f273
:1008fc0000031b685a1c40f27803c2f200031a6012
:10090c0040f27803c2f200031b68042b00dc58e7aa
:10091c00b4e03b68002b00d0b0e040f27803c2f2a8
:10092c00000304221a609de040f27803c2f2000337
:10093c00196840f28c02c2f200020b005b005b18db
:10094c009b009b58180000f089ff031c7968181c49
:10095c0000f0e1fd031c181c00f093ff0300dbb258
:10096c00180000f0d3f903001a0043f20043c4f25c
:10097c0000239a6440f27803c2f20003196840f233
:10098c008c02c2f200020b005b005b189b00d318b8
:10099c0004331b68180000f061ff031c7968181cf5
:1009ac0000f0b9fd031c181c00f06bff0300dbb258
:1009bc00180000f0abf903001a0043f20043c4f234
:1009cc0000235a6440f27803c2f20003196840f223
:1009dc008c02c2f200020b005b005b189b00d31868
:1009ec0008331b68180000f039ff031c7968181cc9
:1009fc0000f091fd031c181c00f043ff0300dbb258
:100a0c00180000f083f903001a0043f20043c4f20b
:100a1c0000231a6540f27803c2f200031a6840f210
:100a2c007c03c2f200031a60c046fff7a9fe020065
:100a3c0041f60043c4f200239b8b9bb29a42f4db39
:100a4c0040f27403c2f200031b68012b15d040f274
:100a5c007803c2f200031b685a1e40f27803c2f2fc
:100a6c0000031a6040f27803c2f200031b68002beb
:100a7c0000db59e702e0c04600e0c046c046bd4678
:100a8c0002b080bd80b582b000af0200bb1d1a80e1
:100a9c00bb1d1b88180000f0e1fe031c48f200018e
:100aac00c4f28041181c00f0e9fd031c191cfe2047
:100abc00800500f02aff031c1a1c40f2c803c2f286
:100acc0000031a6040f27403c2f200031b68012b8e
:100adc0000d084e040f27c03c2f20003196840f2bb
:100aec008c02c2f200020b005b005b189b009b584f
:100afc00180000f0b3fe021c40f2c803c2f200035f
:100b0c001b68191c101c00f006fd031c181c00f0bf
:100b1c00b8fe0300dbb2180000f0f8f803001a006e
:100b2c0043f20043c4f200239a6440f27c03c2f205
:100b3c000003196840f28c02c2f200020b005b0049
:100b4c005b189b00d31804331b68180000f086fe5a
:100b5c00021c40f2c803c2f200031b68191c101cd3
:100b6c0000f0d9fc031c181c00f08bfe0300dbb258
:100b7c00180000f0cbf803001a0043f20043c4f253
:100b8c0000235a6440f27c03c2f20003196840f25d
:100b9c008c02c2f200020b005b005b189b00d318a6
:100bac0008331b68180000f059fe021c40f2c80301
:100bbc00c2f200031b68191c101c00f0acfc031cd7
:100bcc00181c00f05efe0300dbb2180000f09ef86b
:100bdc0003001a0043f20043c4f200231a65c04616
:100bec00bd4602b080bd80b582b000af0200bb1d17
:100bfc001a80bb1d1b88cd2b13d840f2d003c2f238
:100c0c00000301221a6041f60043c4f2002343f2b0
:100c1c00c8229a8340f27403c2f2000300221a60c5
:100c2c0070e0bb1d1b88cd2b19d9bb1d1b8840f256
:100c3c009912934213d840f2d003c2f2000301225e
:100c4c001a6041f60043c4f2002346f290529a8394
:100c5c0040f27403c2f2000300221a6052e0bb1d82
:100c6c001b8840f2991293420cd9bb1d1b8840f291
:100c7c006522934206d840f27403c2f200030122ab
:100c8c001a603fe0bb1d1b8840f26522934219d9c4
:100c9c00bb1d1b8840f23232934213d840f2d00372
:100cac00c2f2000300221a6041f60043c4f2002392
:100cbc0046f290529a8340f27403c2f2000300226f
:100ccc001a601fe0bb1d1b8840f23232934219d9c7
:100cdc00bb1d1b8840f2ff32934213d840f2d00365
:100cec00c2f2000300221a6041f60043c4f2002352
:100cfc0043f2c8229a8340f27403c2f2000300222a
:100d0c001a60ffe7c046bd4602b080bd80b582b018
:100d1c0000af0200fb1d1a70fb1d1b78180000f0c1
:100d2c00c2fd031c0021c4f27f31181c00f0a6fc8c
:100d3c00031c191cfe20800500f0e7fd031c00219c
:100d4c00c4f2ea31181c00f0e6fb031c181c00f07e
:100d5c0098fd03009bb21800bd4602b080bd80b563
:100d6c0000af41f60043c4f20003ec22402199503d
:100d7c00c04641f60043c4f20003ec229b584022cb
:100d8c001340002bf5d0c046bd4680bd80b500afea
:100d9c0043f20043c4f2002301221a60c04643f21e
:100dac000043c4f200239b6801229343002bf6d12d
:100dbc0043f20043c4f2002341f200721a6043f282
:100dcc000043c4f2002300225a6143f20043c4f2f0
:100ddc0000230222c0f20b02da6343f20043c4f296
:100dec00002340f2d4121a6443f20043c4f20023ed
:100dfc001a6843f20043c4f2002302210a431a602a
:100e0c00c04643f20043c4f200239b680222934382
:100e1c00002bf6d1c04643f20043c4f200239b687a
:100e2c000d4a1340002bf6d1c04643f20043c4f2e6
:100e3c0000239b68094a1340002bf6d1c04643f2ad
:100e4c000043c4f200239b68054a1340002bf6d1e3
:100e5c00c046bd4680bdc046fffefffffffdffff45
:100e6c00fff7ffff80b582b000af40f20043c4f241
:100e7c00000301229a7140f20043c4f200030222e3
:100e8c009a7000e0c04640f20043c4f200039b7924
:100e9c00dbb21a0001231340002bf3d040f20043c5
:100eac00c4f2000301229a7145f20003c4f200134c
:100ebc0004225a6041f60003c4f2000302221a62b3
:100ecc0041f20003c4f2000300221a86c04641f22c
:100edc000003c4f200031a6980235b041a408023c8
:100eec005b049a42f3d1fb1d00221a70fb1d1b7888
:100efc009b021b041a0c41f20003c4f2000340f2e3
:100f0c0000210a435a63c04641f20003c4f20003b5
:100f1c001a6980235b041a4080235b049a42f3d144
:100f2c0041f20003c4f2000302221a86c04641f2c9
:100f3c000003c4f200031a6980235b041a40802367
:100f4c005b049a42f3d141f60043c4f20003196ae0
:100f5c0041f60043c4f2000340f20712c0f2010252
:100f6c000a431a6200e0c04641f60043c4f2000393
:100f7c005b6804221340002bf5d141f60043c4f208
:100f8c000003f0229a5841f60043c4f200034021ba
:100f9c000a43f0215a50c04641f60043c4f2000304
:100fac00f0229b5840221340402bf5d1c046bd4641
:100fbc0002b080bd80b500af41f60043c4f200031f
:100fcc00dc229a5841f60043c4f2000340210a4344
:100fdc00dc215a50c04641f60043c4f20003dc2227
:100fec009b589b01002bf6d041f60043c4f2002322
:100ffc001a6841f60043c4f2002301210a431a6027
:10100c00c04641f60043c4f200231b690122134081
:10101c00002bf6d141f60042c4f2002241f6004307
:10102c00c4f2002312681a6041f60043c4f2002394
:10103c001a6841f60043c4f2002310210a431a60d7
:10104c0041f60043c4f200231a6841f60043c4f28f
:10105c00002340f200710a431a6041f60043c4f2c7
:10106c0000231b7bdab241f60043c4f200230121ba
:10107c000a43d2b21a7341f60043c4f200239b8b8d
:10108c009ab241f60043c4f2002343f2c8210a434a
:10109c0092b29a8341f60043c4f200231a6841f6d7
:1010ac000043c4f2002302210a431a60c046bd4625
:1010bc0080bd80b500af00f007f800f016f800f026
:1010cc002af8c046bd4680bd80b500affff747fe8d
:1010dc00fff7c8fefff756fafff7c8fafff76affeb
:1010ec00fff754fec046bd4680bd80b500affff78c
:1010fc0018f9fff754f9fff78ff9fff7d1f8c0464d
:10110c00bd4680bd80b500affff7c8f9fff700fa08
:10111c00c046bd4680bd80b500af40f60003c4f2aa
:10112c0000035a6940f60003c4f2000340f2004188
:10113c000a435a6141f60043c4f200039022402155
:10114c00995000f063f800f01ef9c046bd4680bd12
:10115c0090b583b000af42f60023c4f200035a6985
:10116c0042f60023c4f2000301210a435a61fff73f
:10117c0099fac046fff7c3fa03001a000123534043
:10118c00dbb2002bf6d1bc1dfff7aefa03002380b7
:10119c00bb1d1b881800fff775fcc046bd4603b08d
:1011ac0090bd90b583b000af42f60023c4f20003ab
:1011bc005a6942f60023c4f2000302210a435a6121
:1011cc00fff770fac046fff79afa03001a000123e2
:1011dc005340dbb2002bf6d1bc1dfff785fa0300a0
:1011ec002380bb1d1b881800fff7fdfc42f6002373
:1011fc00c4f200035a6942f60023c4f20003022130
:10120c000a435a61c046bd4603b090bd80b500afdd
:10121c00fff778ff42f60023c4f200031b78dab222
:10122c0042f60023c4f2000301210a43d2b21a7021
:10123c00c04642f60023c4f200035b68012213404f
:10124c00012bf6d042f60023c4f20003da6942f611
:10125c000023c4f2000302210a43da6142f60023a0
:10126c00c4f20003da6942f60023c4f20003082139
:10127c000a43da6142f60023c4f20003da6942f64b
:10128c000023c4f2000320210a43da6142f6002352
:10129c00c4f20003da6942f60023c4f20003802191
:1012ac000a43da6142f60023c4f200031a6b42f6d9
:1012bc000023c4f2000301210a431a6342f60023ff
:1012cc00c4f200031a6b42f60023c4f2000302219d
:1012dc000a431a6342f60023c4f20003596b42f628
:1012ec000023c4f20003ff22c0f201020a435a6336
:1012fc0042f60023c4f200031a6942f60023c4f23a
:10130c00000301210a431a6142f60023c4f20003d0
:10131c001a6942f60023c4f2000302210a431a613f
:10132c0042f60023c4f200031b78dab242f6002323
:10133c00c4f2000302210a43d2b21a70c04642f62c
:10134c000023c4f200035b6802221340022bf6d088
:10135c0042f60023c4f200035a6942f60023c4f299
:10136c00000301210a435a6142f60023c4f2000330
:10137c005a6942f60023c4f2000302210a435a615f
:10138c00c046bd4680bd80b500afbff35f8f62b66f
:10139c0002210320fef70dff0320fef7e9fe0221d8
:1013ac000420fef706ff0420fef7e2fec046bd4611
:1013bc0080bd80b582b000af78603960fff779fef0
:1013cc0040f2c803c2f200031a6840f2d003c2f222
:1013dc0000031b681900101cfff7e3f9f0e7c04687
:020000040000fa
:1013ec000122d20703004b403cd430b4431a01d243
:1013fc00c01ac9184b004400240eff2c28d024b36b
:10140c001b0e20d0e31a182b1ddc09021143c40d4e
:10141c00000210435d4219350a00aa40d209d94096
:10142c00451801d36d080234013ce405280a01215a
:10143c00c9072d062a438a4160414100090eff2944
:10144c0001d3c00dc00530bc7047c00fc007fae710
:10145c0042001823da41ff2af5d07f2000010c301e
:10146c000005f0e7a4465140431a02d25340c01a7b
:10147c00c9184b00090211431b0e4400240eff2c0b
:10148c0040d083b15b421b19012b10d322d1c30d69
:10149c004002401a10d3db050100400ac9059141f6
:1014ac005841644670472442fbd10020f9e7c30d34
:1014bc0040024900401af4d0002101314000fcd315
:1014cc008c4204d95b1adb05400ac018e9e7180afc
:1014dc00c007e6e7192be4d801330c00d940dc41f6
:1014ec004c40012c4941c30d00021043441a01d455
:1014fc00a4006408013bdb05200a240694415841f2
:10150c0064467047ff2b01d04102cad07f200001f6
:06151c000c300005c5e7dc
:020000040000fa
:1015220030b405004d400124e407254042004b0041
:10153200120e32d01b0e3cd0ff2a33d0ff2b3fd0ed
:10154200d21800022043000a09022143090ac4b248
:101552004c43000ac3b24b43000a4843210a5b18ba
:10156200190a091801d44900013a080a7f3a2adb0c
:10157200fe2a0fd2d2051c43240601d001242143a6
:10158200c9b280295041802901d140084000284336
:1015920030bc7047ff20c005f9e71b0eff2b0ad0b5
:1015a2002800f5e7400206d1ff2bf3d1490202d110
:1015b200f0e7ff2af4d17f2000010c300005e7e7b5
:1015c2004902f8d1e6e743020132e9d15b12023364
:0615d200e6d9d805e4e7ac
:020000040000fa
:1015d800d40000200400000001000000000000000a
:1015e800500000201c0000000000000088000020bf
:1015f8004c00000001000000010000007a0000001b
:101608001f000000ce000000e50000007c00000084
:10161800160000004f000000e50000001600000062
:1016280016000000dd000000e500000010000000ca
:10163800e90000006e0000000000003f900100007b
:10164800010000006c0000201800000000000000ed
:10165800000000205000000000000000840000206e
:101668000400000000000000d80000200400000072
:101678000100000000000000000000000000000061
:020000040000fa
:1016880030b405004d400124e407254042004b00da
:10169800120e26d01b0e34d0ff2a2dd0ff2b35d0aa
:1016a800d21a000220430902214343084908a00d29
:1016b8005b1a02d2013a5b005b185b008b4200d3d5
:1016c8005b1a4041f9d37f3222ddff2a06d2d205c8
:1016d800c91a8b425041284330bc7047ff20c005cf
:1016e800f9e71b0e03d0ff2b12d1490210d07f203f
:1016f80000010c300005efe74002f8d1ff2bedd1d7
:10170800f5e7ff2aead14002f1d1e7e74902eed135
:041718002800e1e7dd
:020000040000fa
:10171c0040f20003c0f2000323b140f20003c0f218
:10172c000003984740f20003c0f2000323b140f2db
:10173c000003c0f20003984700f078f840f2000371
:10174c00c0f200037f2293434ef60052cef2000209
:10175c00936041f29d73c0f20003984740f200037e
:10176c00c0f2000323b140f20003c0f2000398471b
:10177c0040f20003c0f2000323b140f20003c0f2b8
:0e178c000003984700210020fff713fefee740
:020000040000fa
:02179a00fee768
:020000040000fa
:10179c0000230e4a10b513600d4a0e4c13600e4a0e
:1017ac0013600e4a13600e4a13600e4a53621361a3
:1017bc000133936000f095f800f093f80a4b9c42cb
:1017cc0000d310bd08cc9847f8e7c0468400002031
:1017dc000c00002068010000080000200000002020
:0c17ec0004000020100000206c01000030
:020000040000fa
:1017f80010b5054c227832b9044b13b1044800e007
:1018080000bf0123237010bd50000020000000001d
:1018180000000000034b10b51bb10349034800e06a
:1018280000bf10bd000000005400002000000000b0
:020000040000fa
:1018380010b50948016811b9436803b910bd04001f
:101848008368064a9bb20c349b009b584268200070
:10185800984780002018ede7d8150000f018000020
:020000040000fa
:10186800c20f12029d3201000cd001d5494202d4a8
:10187800013a4900fcd5d205080a0906494100d3b6
:06188800012950417047e8
:020000040000fa
:10188e0041000dd2090e7f390ad449421f3105d4c9
:10189e0000020122d2071043c8407047c817704794
:0418ae00002070475f
:020000040000fa
:1018b2009d2201000ad002d4013a4900fcd5d2058a
:0e18c200080a0906494100d301295041704728
:020000040000fa
:1018d000002310b5934206d103201840421e9041c8
:0e18e0009b08c01810bdc45ccc540133f2e765
:020000040000fa
:0218ee00704741
:020000040000fa
:1018f00005190000d1180000271900002719000061
:0419000027190000a3
:020000040000fa
:101904008a18914201d10020704700230b700131e5
:02191400f7e7f3
:020000040000fa
:101916000122d207514041f2f133c0f200031847c9
:020000040000fa
:0419260000207047e6
:00000001FF
