:020000040000fa
:10000000f87f0020c91300004714000047140000c7
:1000100000000000000000000000000000000000e0
:100020000000000000000000000000004714000075
:10003000000000000000000047140000471400000a
:100040004714000047140000471400004714000044
:10005000471400006f0a0000471400004714000016
:100060004714000047140000471400004714000024
:100070004714000047140000471400004714000014
:100080004714000047140000471400004714000004
:1000900047140000471400004714000047140000f4
:1000a00047140000471400004714000047140000e4
:1000b00047140000471400004714000047140000d4
:1000c00047140000471400004714000047140000c4
:1000d00047140000471400004714000047140000b4
:1000e00047140000471400004714000047140000a4
:1000f0004714000047140000471400004714000094
:100100004714000047140000471400004714000083
:100110004714000047140000471400004714000073
:100120004714000047140000471400004714000063
:100130004714000047140000471400004714000053
:100140004714000047140000471400004714000043
:0c01500047140000471400004714000092
:020000040000fa
:10015c00f8b5c046f8bc08bc9e467047c9140000f0
:10016c00f8b5c046f8bc08bc9e467047a514000004
:020000040000fa
:10017c0080b582b000af0200fb1d1a70fb1d1b780e
:10018c007f2b12d8fb1d1b781a001f231a4011005d
:10019c004ef20013cef20003fa1d127852b252093d
:1001ac000120884001009200d150c046bd4602b0eb
:1001bc0080bd90b583b000af02003960fb1d1a7092
:1001cc00fb1d1b787f2b2fd84ef20013cef20003b1
:1001dc00fa1d127852b29208c0329200d358fa1d0e
:1001ec001278110003220a40d200ff2191400a002c
:1001fc00d2431a4010003b689b01ff221a40fb1da2
:10020c001b78190003230b40db009a4011004ef2bf
:10021c000013cef20003fa1d127852b29208014379
:10022c00c0329200d15037e04ef60053cef20003ac
:10023c00fa1d127811000f220a40083a9208063271
:10024c0092009b1804331b68fa1d127811000322cc
:10025c000a40d200ff2191400a00d2431a401000fc
:10026c003b689b01ff221a40fb1d1b7819000323de
:10027c000b40db009a404ef60053cef20003f91d02
:10028c0009780c000f2121400839890802430631f6
:10029c0089005b1804331a60c046bd4603b090bd9c
:1002ac0080b500af43f20023c4f20003c2229b5c72
:1002bc00dab243f20023c4f2000301210a43d1b2a3
:1002cc00c222995443f20023c4f20003b1229b5c76
:1002dc00dab243f20023c4f2000301210a43d1b283
:1002ec00b1229954c046bd4680bd80b500af43f2e3
:1002fc000023c4f200039a6843f20023c4f2000303
:10030c0008210a439a6043f20023c4f200035a699d
:10031c0043f20023c4f2000308210a435a6143f25a
:10032c000023c4f2000343229b5cdab243f20023a5
:10033c00c4f2000303210a43d1b24322995443f27d
:10034c000023c4f2000331229b5cdab243f2002397
:10035c00c4f20003702149420a43d1b231229954ac
:10036c00c046bd4680bd80b500af43f20023c4f249
:10037c0000039a6843f20023c4f2000340210a43ad
:10038c009a6043f20023c4f200035a6943f200233b
:10039c00c4f2000340210a435a6143f20023c4f221
:1003ac00000346229b5cdab243f20023c4f2000342
:1003bc0003210a43d1b24622995443f20023c4f2da
:1003cc00000333229b5cdab243f20023c4f2000335
:1003dc0009210a43d1b233229954c046bd4680bd8f
:1003ec0080b500af43f20023c4f2000388229a5870
:1003fc0043f20023c4f2000308210a4388215a5017
:10040c0043f20023c4f2000394229a5843f20023cf
:10041c00c4f2000308210a4394215a5043f20023ea
:10042c00c4f20003c3229b5cdab243f20023c4f291
:10043c00000303210a43d1b2c322995443f200238f
:10044c00c4f20003b1229b5cdab243f20023c4f283
:10045c000003702149420a43d1b2b1229954c046db
:10046c00bd4680bd80b500af43f20022c4f200024d
:10047c0043f20023c4f2000392689a6043f2002313
:10048c00c4f2000340229b5cdab243f20023c4f2b4
:10049c00000307210a43d1b24022995443f20023ae
:1004ac00c4f200039a6943f20023c4f20003012151
:1004bc000a439a6143f20022c4f2000243f2002381
:1004cc00c4f200033021525cd1b230229954c046a0
:1004dc00bd4680bd80b500af43f20022c4f20002dd
:1004ec0043f20023c4f2000392689a6043f20023a3
:1004fc00c4f2000341229b5cdab243f20023c4f243
:10050c00000307210a43d1b24122995443f200233c
:10051c00c4f200039a6943f20023c4f200030221df
:10052c000a439a6143f20022c4f2000243f2002310
:10053c00c4f200033021525cd1b230229954c0462f
:10054c00bd4680bd80b500af43f60003c4f2002366
:10055c0001221a70c04643f60003c4f200231b8c20
:10056c009bb21a0001231340012bf4d043f6000375
:10057c00c4f2002302225a7043f60003c4f2002393
:10058c0003225a7343f60003c4f2002305229a7027
:10059c0043f60003c4f2002300221a8143f6000341
:1005ac00c4f2002320225a8143f60003c4f2002334
:1005bc0007229a71c04643f60003c4f200231b8c39
:1005cc009bb2002bf7d1c046bd4680bd80b500afb5
:1005dc0043f60003c4f200231b78dab243f600039f
:1005ec00c4f2002302210a43d2b21a70c04643f669
:1005fc000003c4f200231b8c9bb2002bf7d1c04626
:10060c00bd4680bd80b500af43f60003c4f20023a5
:10061c001b7edab243f60003c4f2002302210a4324
:10062c00d2b21a76c04643f60003c4f200231b8ce8
:10063c009bb21a0040f20043134040f20042934236
:10064c00f1d0c046bd4680bd80b500af43f6000377
:10065c00c4f200239b8c9bb21800bd4680bd80b5b4
:10066c0082b000af43f60003c4f200239b79dbb2e7
:10067c001a0001231a40fb1d511e8a411a70fb1de2
:10068c001b782bb143f60003c4f2002301229a71ac
:10069c00fb1d1b781800bd4602b080bd80b584b030
:1006ac0000af78600de00023fb6002e0fb680133d3
:1006bc00fb60fb6840f660229342f7dd7b68013bf0
:1006cc007b607b68002beedcc046bd4604b080bd71
:1006dc0080b500af7a2000f09bf903001a0043f2ba
:1006ec000043c4f200239a641f2000f091f9030028
:1006fc001a0043f20043c4f200235a64ce2000f0e7
:10070c0087f903001a0043f20043c4f200231a6570
:10071c0040f29010fff7c2ffe52000f079f90300da
:10072c001a0043f20043c4f200239a647c2000f0c8
:10073c006ff903001a0043f20043c4f200235a6419
:10074c00162000f065f903001a0043f20043c4f2ce
:10075c0000231a6540f29010fff7a0ff4f2000f025
:10076c0057f903001a0043f20043c4f200239a64c1
:10077c00e52000f04df903001a0043f20043c4f2e7
:10078c0000235a64162000f043f903001a0043f2c8
:10079c000043c4f200231a6540f29010fff77eff6d
:1007ac00162000f035f903001a0043f20043c4f29e
:1007bc0000239a64dd2000f02bf903001a0043f2a9
:1007cc000043c4f200235a64e52000f021f9030031
:1007dc001a0043f20043c4f200231a6540f2901051
:1007ec00fff75cff102000f013f903001a0043f22e
:1007fc000043c4f200239a64e92000f009f90300d5
:10080c001a0043f20043c4f200235a646e2000f035
:10081c00fff803001a0043f20043c4f200231a65e8
:10082c0040f29010fff73affc046bd4680bdb0b510
:10083c0000af40f2bc03c2f200031b682e229a42a6
:10084c009b415b42dab240f27003c2f200031b68b8
:10085c0059424b41dbb21340dbb2f3b140f2bc0363
:10086c00c2f200031b68180000f095fe46f26762a6
:10087c00c6f2666246f26663c4f2570300f0a2fe4b
:10088c0003000c001800210000f03efe020040f2b4
:10089c00bc03c2f200031a6040e040f2bc03c2f297
:1008ac0000031b682e2b06d940f27003c2f2000322
:1008bc001b68012b32d140f2bc03c2f200031b684f
:1008cc00180000f068fe4cf6cd42ccf6cc4248f64f
:1008dc00cc43c4f2610300f0f5fa03000c001800dd
:1008ec00210000f011fe020040f2bc03c2f2000332
:1008fc001a6040f27003c2f2000301221a6040f247
:10090c00bc03c2f200031b6840f24712934205d9a4
:10091c0040f27003c2f2000300221a6043f200435b
:10092c00c4f2002340f2bc02c2f2000212689a64c4
:10093c0043f20043c4f2002340f2bc02c2f20002b4
:10094c0012685a6543f20043c4f2002340f2bc0221
:10095c00c2f2000212681a65c046bd46b0bd80b531
:10096c0082b000af786040f26c03c2f200031b68e7
:10097c0040f26c03c2f200031b68cd2b44d940f249
:10098c006c03c2f200031b68cd2b08d940f26c0338
:10099c00c2f200031b6840f29912934234d940f220
:1009ac006c03c2f200031b6840f2991293420ad9fd
:1009bc0040f26c03c2f200031b6840f265229342c2
:1009cc0001d8c04620e040f26c03c2f200031b6861
:1009dc0040f26522934208d940f26c03c2f2000344
:1009ec001b6840f2323293420ed940f26c03c2f2d1
:1009fc0000031b6840f23232934205d940f26c037b
:100a0c00c2f200031b68ffe7c046bd4602b080bdc2
:100a1c0080b582b000af0200fb1d1a70fb1d1b7865
:100a2c00180000f09afd031c0021c4f27f31181c41
:100a3c0000f07afc031c191cfe20800500f0d4fd8c
:100a4c00031c0021c4f2ea31181c00f0bafb031c91
:100a5c00181c00f070fd03009bb21800bd4602b0dc
:100a6c0080bd90b583b000affff7ccfdc046fff75b
:100a7c00f6fd03001a0001235340dbb2002bf6d124
:100a8c00bc1dfff7e1fd0300238042f60023c4f2f6
:100a9c0000035a6942f60023c4f2000301210a4301
:100aac005a6142f60023c4f200035a6942f600234d
:100abc00c4f2000301210a435a61fff7b8fec04695
:100acc00bd4603b090bd80b500af42f60023c4f222
:100adc00000301221a70c04642f60023c4f2000340
:100aec005b6801221340012bf6d042f60023c4f2be
:100afc0000039922da6142f60023c4f200030322b8
:100b0c001a6342f60023c4f20003ff22c0f2010272
:100b1c005a6342f60023c4f2000303221a6142f620
:100b2c000023c4f2000302221a70c04642f60023ce
:100b3c00c4f200035b6802221340022bf6d042f68b
:100b4c000023c4f200035a6942f60023c4f20003e6
:100b5c0002210a435a6142f60023c4f200035a6987
:100b6c0042f60023c4f2000301210a435a61c04635
:100b7c00bd4680bd80b500afbff35f8f62b6032169
:100b8c000320fff716fb0320fff7f2fa04210420e1
:100b9c00fff70ffb0420fff7ebfac046bd4680bd04
:100bac0080b500af41f60043c4f20003ec224021b3
:100bbc009950c04641f60043c4f20003ec229b5806
:100bcc0040221340002bf5d0c046bd4680bd80b5f9
:100bdc0082b000af786043f20043c4f200230122dc
:100bec001a60c04643f20043c4f200239b68012202
:100bfc009343002bf6d143f20043c4f2002341f29d
:100c0c0000721a6043f20043c4f2002300225a61be
:100c1c0043f20043c4f200230222c0f20b02da6357
:100c2c0043f20043c4f2002340f2d4121a6443f29c
:100c3c000043c4f2002300229a6443f20043c4f23e
:100c4c00002300225a6443f20043c4f20023002222
:100c5c001a6543f20043c4f200231a6843f20043be
:100c6c00c4f2002302210a431a60c04643f2004337
:100c7c00c4f200239b6802229343002bf6d1c0469a
:100c8c0043f20043c4f200239b680e4a1340002b2e
:100c9c00f6d1c04643f20043c4f200239b680a4ad3
:100cac001340002bf6d1c04643f20043c4f200239c
:100cbc009b68064a1340002bf6d1c046bd4602b0d5
:100ccc0080bdc046fffefffffffdfffffff7ffffec
:100cdc0080b582b000af40f20043c4f200030122a1
:100cec009a7140f20043c4f2000302229a7000e0b1
:100cfc00c04640f20043c4f200039b79dbb21a00f9
:100d0c0001231340002bf3d040f20043c4f2000344
:100d1c0001229a7145f20003c4f2001304225a60b6
:100d2c0041f60003c4f2000302221a6241f20003ee
:100d3c00c4f2000300221a86c04641f20003c4f23a
:100d4c0000031a6980235b041a4080235b049a42d7
:100d5c00f3d1fb1d00221a70fb1d1b789b021b0498
:100d6c001a0c41f20003c4f2000340f200210a43c2
:100d7c005a63c04641f20003c4f200031a6980238f
:100d8c005b041a4080235b049a42f3d141f20003c6
:100d9c00c4f2000302221a86c04641f20003c4f2d8
:100dac0000031a6980235b041a4080235b049a4277
:100dbc00f3d141f60043c4f2000340f20712c0f233
:100dcc0001021a6200e0c04641f60043c4f200037f
:100ddc005b6804221340002bf5d141f60043c4f2aa
:100dec000003f02240219950c04641f60043c4f262
:100dfc000003f0229b5840221340402bf5d1c046f3
:100e0c00bd4602b080bd80b500af00f009f800f01f
:100e1c001cf800f027f800f02ef8c046bd4680bd47
:100e2c0080b500affff7bcfefff752fffff78afb60
:100e3c00fff7ccfb40f2bc03c2f200031b681800a6
:100e4c00fff7c5fec046bd4680bd80b500affff7bd
:100e5c004cfafff788fafff7c3fafff721fac046fe
:100e6c00bd4680bd80b500affff7fcfafff732fb43
:100e7c00c046bd4680bd80b500af40f60003c4f24d
:100e8c0000035a6940f60003c4f2000340f200412b
:100e9c000a435a6141f60043c4f2000390224021f8
:100eac009950fff710fefff765fec046bd4680bdaa
:100ebc0080b582b000af78603960fff7a4fffff710
:040ecc0007fcfce73c
:020000040000fa
:100ed000f0b40125ed070f005f405ad48b4200d1da
:100ee000824205d950404240504059404b40594001
:100ef0004e18760ddf187f0d3bd0741c640529d089
:100f0000f41b352c26d80e0ddb022b43db0ac9025d
:100f10002943c9121700202c1ed2e741e240574056
:100f2000e3415a40a340e3405a400024801859410d
:100f30000ad3b21c520521d0c207012f624117000b
:100f40004008cb0718434908013636054208af412f
:100f500060417141f0bc7047203c06d01f00e74162
:100f6000e3405f400024012a6741c0186141ebd390
:100f7000dfe7002eeed129400020ebe701363105f6
:100f80000020e7e7e742e5d10020c143090dc9048d
:100f9000e0e76b400e00871a9e4104d26e40c01bf2
:100fa000b141d21973414e18df18ac0ae642e9d2ba
:100fb000760d7f0d31d0f41b362ccbd8b4460e0df8
:100fc000db022b43db0ac9022943c90a012c32d8b0
:100fd00004d1d4075208df073a435b08ef0a6442a2
:100fe000904199411ed0002239424dd124194041ef
:100ff00049410124394204d10134001849413942a0
:10100000fad06246a24204d9361b013e3605891940
:10101000a0e7f10ac90700209ce736429ad10020d8
:10102000002197e70200224394d0b842ded20100ab
:1010300020002024e3d1202c13dd203ce2411700c6
:10104000a240e2405740e3415a40a340e3405a40a7
:10105000012fbf410137174300227c429841914143
:101060000ce01700e741e2405740e3415a40a340fb
:10107000e3405a407c429041994100220f0303d241
:10108000013e241940414941013e36054708ac4123
:0810900050417141f0bc7047b2
:020000040000fa
:101098000122d20703004b403cd430b4431a01d29a
:1010a800c01ac9184b004400240eff2c28d024b3c2
:1010b8001b0e20d0e31a182b1ddc09021143c40da6
:1010c800000210435d4219350a00aa40d209d940ee
:1010d800451801d36d080234013ce405280a0121b2
:1010e800c9072d062a438a4160414100090eff299c
:1010f80001d3c00dc00530bc7047c00fc007fae768
:1011080042001823da41ff2af5d07f2000010c3075
:101118000005f0e7a4465140431a02d25340c01ad2
:10112800c9184b00090211431b0e4400240eff2c62
:1011380040d083b15b421b19012b10d322d1c30dc0
:101148004002401a10d3db050100400ac90591414d
:101158005841644670472442fbd10020f9e7c30d8b
:1011680040024900401af4d0002101314000fcd36c
:101178008c4204d95b1adb05400ac018e9e7180a53
:10118800c007e6e7192be4d801330c00d940dc414d
:101198004c40012c4941c30d00021043441a01d4ac
:1011a800a4006408013bdb05200a24069441584149
:1011b80064467047ff2b01d04102cad07f2000014e
:0611c8000c300005c5e734
:020000040000fa
:1011ce0030b405004d400124e407254042004b0099
:1011de00120e32d01b0e3cd0ff2a33d0ff2b3fd045
:1011ee00d21800022043000a09022143090ac4b2a0
:1011fe004c43000ac3b24b43000a4843210a5b1812
:10120e00190a091801d44900013a080a7f3a2adb63
:10121e00fe2a0fd2d2051c43240601d001242143fd
:10122e00c9b280295041802901d14008400028438d
:10123e0030bc7047ff20c005f9e71b0eff2b0ad00c
:10124e002800f5e7400206d1ff2bf3d1490202d167
:10125e00f0e7ff2af4d17f2000010c300005e7e70c
:10126e004902f8d1e6e743020132e9d15b120233bb
:06127e00e6d9d805e4e703
:020000040000fa
:10128400c000002004000000010000000000000075
:10129400500000201c00000000000000800000201e
:1012a40040000000010000007a0000001f00000060
:1012b400ce0000000000000000000000e500000077
:1012c4007c00000016000000000000000000000088
:1012d4004f000000e50000001600000000000000c0
:1012e40000000000ea0000006c0000201000000074
:1012f400000000000000002050000000000000007a
:101304007c0000200400000000000000c400002055
:1013140004000000010000000000000000000000c4
:1013240000000000666666666666666666666666f1
:020000040000fa
:1013340030b405004d400124e407254042004b0031
:10134400120e26d01b0e34d0ff2a2dd0ff2b35d001
:10135400d21a000220430902214343084908a00d80
:101364005b1a02d2013a5b005b185b008b4200d32c
:101374005b1a4041f9d37f3222ddff2a06d2d2051f
:10138400c91a8b425041284330bc7047ff20c00526
:10139400f9e71b0e03d0ff2b12d1490210d07f2096
:1013a40000010c300005efe74002f8d1ff2bedd12e
:1013b400f5e7ff2aead14002f1d1e7e74902eed18d
:0413c4002800e1e735
:020000040000fa
:1013c80040f20003c0f2000323b140f20003c0f270
:1013d8000003984740f20003c0f2000323b140f233
:1013e8000003c0f20003984700f078f840f20003c9
:1013f800c0f200037f2293434ef60052cef2000261
:10140800936041f24943c0f20003984740f2000359
:10141800c0f2000323b140f20003c0f20003984772
:1014280040f20003c0f2000323b140f20003c0f20f
:0e1438000003984700210020fff73cfdfee76f
:020000040000fa
:02144600fee7bf
:020000040000fa
:1014480000230e4a10b513600d4a0e4c13600e4a65
:1014580013600e4a13600e4a13600e4a53621361fa
:101468000133936000f0ccf800f0caf80a4b9c42b4
:1014780000d310bd08cc9847f8e7c0467c00002090
:101488000c00002068010000080000200000002077
:0c14980004000020100000206c01000087
:020000040000fa
:1014a40010b5054c227832b9044b13b1044800e05e
:1014b40000bf0123237010bd500000200000000075
:1014c40000000000034b10b51bb10349034800e0c2
:1014d40000bf10bd00000000540000200000000008
:020000040000fa
:1014e40010b50948016811b9436803b910bd040077
:1014f4008368064a9bb20c349b009b5842682000c8
:10150400984780002018ede784120000bc15000005
:020000040000fa
:101514004a0010d2520d03231b02ff33d21a0ad4fd
:1015240052421f3209d4400dc90208430123db078c
:0e1534001843d040704700207047d017704712
:020000040000fa
:1015420041000dd2090e7f390ad449421f3105d418
:1015520000020122d2071043c8407047c8177047e3
:0415620000207047ae
:020000040000fa
:101566009d2201000ad002d4013a4900fcd5d205d9
:0e157600080a0906494100d301295041704777
:020000040000fa
:10158400002310b5934206d103201840421e904117
:0e1594009b08c01810bdc45ccc540133f2e7b4
:020000040000fa
:1015a20040f21d42010007d002d4013a0018fcd5d6
:0a15b2001205c30a4005991870479e
:020000040000fa
:1015bc00e315000085150000051600000516000057
:0415cc000516000000
:020000040000fa
:1015d000f0b40125ed076b4040f6d764c0f200047b
:0215e0002047a2
:020000040000fa
:1015e2008a18914201d10020704700230b7001310b
:0215f200f7e719
:020000040000fa
:1015f4000122d207514041f29d03c0f20003184773
:020000040000fa
:04160400002070470b
:020000040000fa
:02160800704729
:00000001FF
