:020000040000fa
:10000000f87f00201f1e0000131c0000131c0000be
:1000100000000000000000000000000000000000e0
:10002000000000000000000000000000131c0000a1
:100030000000000000000000131c0000131c000062
:10004000131c0000131c0000131c000059180000b2
:10005000ab180000131c0000131c0000131c000050
:10006000131c0000131c0000131c0000131c0000d4
:10007000131c0000131c0000131c0000131c0000c4
:10008000131c0000131c0000131c0000131c0000b4
:10009000131c0000131c0000131c0000131c0000a4
:1000a000131c0000131c0000131c0000131c000094
:1000b000131c0000131c0000131c0000131c000084
:1000c000131c0000131c0000131c0000131c000074
:1000d000131c0000131c0000131c0000131c000064
:1000e000131c0000131c0000131c0000131c000054
:1000f000131c0000131c0000131c0000131c000044
:10010000131c0000131c0000131c0000131c000033
:10011000131c0000131c0000131c0000131c000023
:10012000131c0000131c0000131c0000131c000013
:10013000131c0000131c0000131c0000131c000003
:10014000131c0000131c0000131c0000131c0000f3
:0c015000131c0000131c0000131c000016
:020000040000fa
:10015c00f8b5c046f8bc08bc9e4670471d1f000091
:10016c00f8b5c046f8bc08bc9e467047f91e0000a6
:020000040000fa
:10017c0080b582b000af0200fb1d1a70fb1d1b780e
:10018c007f2b12d8fb1d1b781a001f231a4011005d
:10019c004ef20013cef20003fa1d127852b252093d
:1001ac000120884001009200d150c046bd4602b0eb
:1001bc0080bd90b583b000af02003960fb1d1a7092
:1001cc00fb1d1b787f2b2fd84ef20013cef20003b1
:1001dc00fa1d127852b29208c0329200d358fa1d0e
:1001ec001278110003220a40d200ff2191400a002c
:1001fc00d2431a4010003b689b01ff221a40fb1da2
:10020c001b78190003230b40db009a4011004ef2bf
:10021c000013cef20003fa1d127852b29208014379
:10022c00c0329200d15037e04ef60053cef20003ac
:10023c00fa1d127811000f220a40083a9208063271
:10024c0092009b1804331b68fa1d127811000322cc
:10025c000a40d200ff2191400a00d2431a401000fc
:10026c003b689b01ff221a40fb1d1b7819000323de
:10027c000b40db009a404ef60053cef20003f91d02
:10028c0009780c000f2121400839890802430631f6
:10029c0089005b1804331a60c046bd4603b090bd9c
:1002ac0080b500af43f20023c4f2000384229a58b5
:1002bc0043f20023c4f2000304210a4384215a5060
:1002cc0043f20023c4f2000398229a5843f200230d
:1002dc00c4f2000304210a4398215a5043f200232c
:1002ec00c4f20003c2229b5cdab243f20023c4f2d4
:1002fc00000303210a43d1b2c222995443f20023d2
:10030c00c4f20003b1229b5cdab243f20023c4f2c4
:10031c00000301210a43d1b2b1229954c046bd4613
:10032c0080bd80b500af43f20023c4f200039a688d
:10033c0043f20023c4f2000308210a439a6043f2fb
:10034c000023c4f200035a6943f20023c4f20003f1
:10035c0008210a435a6143f20023c4f200034322ea
:10036c009b5cdab243f20023c4f2000303210a437c
:10037c00d1b24322995443f20023c4f20003312238
:10038c009b5cdab243f20023c4f2000370214942b1
:10039c000a43d1b231229954c046bd4680bd80b5c6
:1003ac0000af43f20023c4f200039a6843f2002327
:1003bc00c4f2000340210a439a6043f20023c4f2c2
:1003cc0000035a6943f20023c4f2000340210a439c
:1003dc005a6143f20023c4f2000346229b5cdab25a
:1003ec0043f20023c4f2000303210a43d1b2462294
:1003fc00995443f20023c4f2000333229b5cdab21b
:10040c0043f20023c4f2000309210a43d1b2332280
:10041c009954c046bd4680bd80b500af43f2002361
:10042c00c4f2000388229a5843f20023c4f200035a
:10043c0008210a4388215a5043f20023c4f20003d6
:10044c0094229a5843f20023c4f2000308210a4371
:10045c0094215a5043f20023c4f20003c3229b5c44
:10046c00dab243f20023c4f2000303210a43d1b2ef
:10047c00c322995443f20023c4f20003b1229b5cc3
:10048c00dab243f20023c4f20003702149420a435a
:10049c00d1b2b1229954c046bd4680bd80b500afe3
:1004ac0043f20023c4f200035a6843f20023c4f25f
:1004bc00000301210a435a6043f20023c4f20003f3
:1004cc0040229b5cdab243f20023c4f20003072102
:1004dc000a43d1b24022995443f20023c4f20003e0
:1004ec009a6943f20023c4f2000301210a439a6182
:1004fc0043f20022c4f2000243f20023c4f20003d0
:10050c003021525cd1b230229954c046bd4680bdd8
:10051c0080b500af43f20023c4f200035a6843f2e3
:10052c000023c4f2000302210a435a6043f2002361
:10053c00c4f2000341229b5cdab243f20023c4f202
:10054c00000307210a43d1b24122995443f20023fc
:10055c00c4f200039a6943f20023c4f2000302219f
:10056c000a439a6143f20022c4f2000243f20023d0
:10057c00c4f200033021525cd1b230229954c046ef
:10058c00bd4680bd80b500af43f60003c4f2002326
:10059c001b78dab243f60003c4f2002301210a43ac
:1005ac00d2b21a70c04643f60003c4f200231b8c6f
:1005bc009bb21a0001231340012bf4d043f6000325
:1005cc00c4f200235b78dab243f60003c4f20023d2
:1005dc0002210a43d2b25a7043f60003c4f200233c
:1005ec005b7bdab243f60003c4f2002303210a4317
:1005fc00d2b25a7343f60003c4f200239b78dab2ea
:10060c0043f60003c4f2002305210a43d2b29a70c8
:10061c0043f60003c4f200231b899ab243f600038d
:10062c00c4f200230a210a4392b21a8143f6000352
:10063c00c4f2002320225a8143f60003c4f20023a3
:10064c009b79dab243f60003c4f2002307210a4374
:10065c00d2b29a71c04643f60003c4f200231b8c3d
:10066c009bb2002bf7d1c046bd4680bd80b500af14
:10067c0043f60003c4f200231b78dab243f60003fe
:10068c00c4f2002302210a43d2b21a70c04643f6c8
:10069c000003c4f200231b8c9bb2002bf7d1c04685
:1006ac00bd4680bd80b500af43f60003c4f2002305
:1006bc001b7edab243f60003c4f2002302210a4384
:1006cc00d2b21a76c04643f60003c4f200231b8c48
:1006dc009bb21a0040f20043134040f20042934296
:1006ec00f1d0c046bd4680bd80b500af43f60003d7
:1006fc00c4f200239b8c9bb21800bd4680bd80b514
:10070c0082b000af43f60003c4f200239b79dbb246
:10071c001a0001231a40fb1d511e8a411a70fb1d41
:10072c001b786bb143f60003c4f200239b79dab259
:10073c0043f60003c4f2002301210a43d2b29a719a
:10074c00fb1d1b781800bd4602b080bd80b584b07f
:10075c0000af78600de00023fb6002e0fb68013322
:10076c00fb60fb6840f660229342f7dd7b68013b3f
:10077c007b607b68002beedcc046bd4604b080bdc0
:10078c0080b500af41f60043c4f200235b79dab2c6
:10079c0041f60043c4f20023802149420a43d2b2fd
:1007ac005a7141f60043c4f200239b8a9bb2180095
:1007bc00bd4680bd80b500af41f60043c4f20023b6
:1007cc0010229a7241f60043c4f2002301225a719e
:1007dc00c04641f60043c4f200231b6901221340ba
:1007ec00002bf6d1c04641f60043c4f200239b7a9d
:1007fc00dbb21a0010231340002bf4d041f6004357
:10080c00c4f2002310229a72c046bd4680bd80b54a
:10081c0082b000af786040f2dc03c2f200031b68c8
:10082c00012b71d140f25803c2f2000301221a606d
:10083c0040f2dc03c2f2000300221a6040f29c0377
:10084c00c2f200031b68180001f088fb021c40f286
:10085c009403c2f200031b68191c101c01f034fa3b
:10086c00031c181c01f08dfb0300dbb2180000f018
:10087c00c2fd03001a0043f20043c4f200239a6441
:10088c0040f29c03c2f200035b68180001f066fba7
:10089c00021c40f29403c2f200031b68191c101cca
:1008ac0001f012fa031c181c01f06bfb0300dbb205
:1008bc00180000f0a0fd03001a0043f20043c4f23c
:1008cc0000235a6440f29c03c2f200039b68180098
:1008dc0001f044fb021c40f29403c2f200031b68bb
:1008ec00191c101c01f0f0f9031c181c01f049fb39
:1008fc000300dbb2180000f07efd03001a0043f287
:10090c000043c4f200231a6540f26c03c2f20003e8
:10091c001b68002b00d097e140f25803c2f2000391
:10092c001b68002b00d03be37b68012b00d0c3e09d
:10093c0040f25c03c2f2000300221a60b3e040f202
:10094c005c03c2f200031a6840f26403c2f20003b3
:10095c001a6040f25c03c2f20003196840f29c0278
:10096c00c2f200020b005b005b189b009b58180046
:10097c0001f0f4fa021c40f29403c2f200031b686b
:10098c00191c101c01f0a0f9031c181c01f0f9fa39
:10099c000300dbb2180000f02efd03001a0043f236
:1009ac000043c4f200239a6440f25c03c2f20003d9
:1009bc00196840f29c02c2f200020b005b005b184b
:1009cc009b00d31804331b68180001f0c7fa021cf3
:1009dc0040f29403c2f200031b68191c101c01f0b6
:1009ec0073f9031c181c01f0ccfa0300dbb21800dd
:1009fc0000f001fd03001a0043f20043c4f200238f
:100a0c005a6440f25c03c2f20003196840f29c0283
:100a1c00c2f200020b005b005b189b00d31808337a
:100a2c001b68180001f09afa021c40f29403c2f2ff
:100a3c0000031b68191c101c01f046f9031c181c40
:100a4c0001f09ffa0300dbb2180000f0d4fc0300a5
:100a5c001a0043f20043c4f200231a65fff7aafe02
:100a6c0040f25c03c2f200031a6840f26003c2f267
:100a7c0000031a6040f25803c2f200031b68012bfa
:100a8c0006d140f26c03c2f2000301221a6087e225
:100a9c0040f25c03c2f200031b685a1c40f25c0378
:100aac00c2f200031a6040f25c03c2f200031b683e
:100abc00042b00dc43e773e27b68002b00d06fe271
:100acc0040f25c03c2f2000304221a60b3e040f26d
:100adc005c03c2f200031a6840f26403c2f2000322
:100aec001a6040f25c03c2f20003196840f29c02e7
:100afc00c2f200020b005b005b189b009b581800b5
:100b0c0001f02cfa021c40f29403c2f200031b68a1
:100b1c00191c101c01f0d8f8031c181c01f031fa38
:100b2c000300dbb2180000f066fc03001a0043f26d
:100b3c000043c4f200239a6440f25c03c2f2000347
:100b4c00196840f29c02c2f200020b005b005b18b9
:100b5c009b00d31804331b68180001f0fff9021c2a
:100b6c0040f29403c2f200031b68191c101c01f024
:100b7c00abf8031c181c01f004fa0300dbb21800dc
:100b8c0000f039fc03001a0043f20043c4f20023c6
:100b9c005a6440f25c03c2f20003196840f29c02f2
:100bac00c2f200020b005b005b189b00d3180833e9
:100bbc001b68180001f0d2f9021c40f29403c2f237
:100bcc0000031b68191c101c01f07ef8031c181c78
:100bdc0001f0d7f90300dbb2180000f00cfc0300a5
:100bec001a0043f20043c4f200231a65fff7e2fd3a
:100bfc0040f25c03c2f200031a6840f26003c2f2d6
:100c0c0000031a6040f25803c2f200031b68012b68
:100c1c0006d140f26c03c2f2000301221a60bfe15c
:100c2c0040f25c03c2f200031b685a1e40f25c03e4
:100c3c00c2f200031a6040f25c03c2f200031b68ac
:100c4c00002b00db43e7abe140f26c03c2f2000384
:100c5c001b68012b00d0a3e17b68012b00d0cde0f9
:100c6c0040f26003c2f200031a6840f25c03c2f265
:100c7c0000031a60b9e040f25c03c2f200031a6888
:100c8c0040f26403c2f200031a6040f25c03c2f249
:100c9c000003196840f29c02c2f200020b005b00d8
:100cac005b189b009b58180001f058f9021c40f28d
:100cbc009403c2f200031b68191c101c01f004f809
:100ccc00031c181c01f05df90300dbb2180000f0e6
:100cdc0092fb03001a0043f20043c4f200239a640f
:100cec0040f25c03c2f20003196840f29c02c2f2ab
:100cfc0000020b005b005b189b00d31804331b68cd
:100d0c00180001f02bf9021c40f29403c2f200030c
:100d1c001b68191c101c00f0d7ff031c181c01f0d9
:100d2c0030f90300dbb2180000f065fb03001a0079
:100d3c0043f20043c4f200235a6440f25c03c2f253
:100d4c000003196840f29c02c2f200020b005b0027
:100d5c005b189b00d31808331b68180001f0fef8d1
:100d6c00021c40f29403c2f200031b68191c101cf5
:100d7c0000f0aaff031c181c01f003f90300dbb2fe
:100d8c00180000f038fb03001a0043f20043c4f2d1
:100d9c0000231a65fff70efd40f25c03c2f200035c
:100dac001a6840f26003c2f200031a6040f2580362
:100dbc00c2f200031b68012b06d140f26c03c2f295
:100dcc00000301221a60ebe040f26c03c2f2000354
:100ddc0000221a6040f25c03c2f200031b685a1c2a
:100dec0040f25c03c2f200031a6040f25c03c2f2f0
:100dfc0000031b68042b00dc3de7d1e07b68002b73
:100e0c0000d0cde040f26003c2f200031a6840f259
:100e1c005c03c2f200031a60b9e040f25c03c2f258
:100e2c0000031a6840f26403c2f200031a6040f235
:100e3c005c03c2f20003196840f29c02c2f2000289
:100e4c000b005b005b189b009b58180001f086f8a8
:100e5c00021c40f29403c2f200031b68191c101c04
:100e6c0000f032ff031c181c01f08bf80300dbb2fe
:100e7c00180000f0c0fa03001a0043f20043c4f259
:100e8c0000239a6440f25c03c2f20003196840f23a
:100e9c009c02c2f200020b005b005b189b00d31893
:100eac0004331b68180001f059f8021c40f294033b
:100ebc00c2f200031b68191c101c00f005ff031c78
:100ecc00181c01f05ef80300dbb2180000f093fa76
:100edc0003001a0043f20043c4f200235a6440f2a8
:100eec005c03c2f20003196840f29c02c2f20002d9
:100efc000b005b005b189b00d31808331b681800b1
:100f0c0001f02cf8021c40f29403c2f200031b689f
:100f1c00191c101c00f0d8fe031c181c01f031f831
:100f2c000300dbb2180000f066fa03001a0043f26b
:100f3c000043c4f200231a65fff73cfc40f25c034b
:100f4c00c2f200031a6840f26003c2f200031a6096
:100f5c0040f25803c2f200031b68012b06d140f289
:100f6c006c03c2f2000301221a6019e040f26c0318
:100f7c00c2f2000300221a6040f25c03c2f20003ca
:100f8c001b685a1e40f25c03c2f200031a6040f266
:100f9c005c03c2f200031b68002b00db3de7ffe79c
:100fac00c046bd4602b080bd80b582b000af020025
:100fbc00bb1d1a80bb1d1b88180000f0cfff031c43
:100fcc0048f20001c4f28041181c00f0d8fe031c4a
:100fdc00191cfe20800501f018f8031c1a1c40f2a5
:100fec009403c2f200031a6040f25803c2f20003e9
:100ffc001b68002b00d084e040f26403c2f20003b3
:10100c00196840f29c02c2f200020b005b005b18f4
:10101c009b009b58180000f0a1ff021c40f29403a7
:10102c00c2f200031b68191c101c00f04dfe031cbf
:10103c00181c00f0a6ff0300dbb2180000f0dbf96f
:10104c0003001a0043f20043c4f200239a6440f2f6
:10105c006403c2f20003196840f29c02c2f200025f
:10106c000b005b005b189b00d31804331b68180043
:10107c0000f074ff021c40f29403c2f200031b68e0
:10108c00191c101c00f020fe031c181c00f079ff2a
:10109c000300dbb2180000f0aef903001a0043f2b3
:1010ac000043c4f200235a6440f26403c2f200030a
:1010bc00196840f29c02c2f200020b005b005b1844
:1010cc009b00d31808331b68180000f047ff021c64
:1010dc0040f29403c2f200031b68191c101c00f0b0
:1010ec00f3fd031c181c00f04cff0300dbb21800ce
:1010fc0000f081f903001a0043f20043c4f200230c
:10110c001a6540f25803c2f200031b68012b00d091
:10111c0084e040f26003c2f20003196840f29c02c2
:10112c00c2f200020b005b005b189b009b5818007e
:10113c0000f014ff021c40f29403c2f200031b687f
:10114c00191c101c00f0c0fd031c181c00f019ff2a
:10115c000300dbb2180000f04ef903001a0043f252
:10116c000043c4f200239a6440f26003c2f200030d
:10117c00196840f29c02c2f200020b005b005b1883
:10118c009b00d31804331b68180000f0e7fe021c08
:10119c0040f29403c2f200031b68191c101c00f0ef
:1011ac0093fd031c181c00f0ecfe0300dbb21800ce
:1011bc0000f021f903001a0043f20043c4f20023ab
:1011cc005a6440f26003c2f20003196840f29c02b8
:1011dc00c2f200020b005b005b189b00d3180833b3
:1011ec001b68180000f0bafe021c40f29403c2f215
:1011fc0000031b68191c101c00f066fd031c181c56
:10120c0000f0bffe0300dbb2180000f0f4f803009e
:10121c001a0043f20043c4f200231a65c046bd46cf
:10122c0002b080bd80b582b000af0200bb1d1a8039
:10123c00bb1d1b88cd2b27d840f2d803c2f200036c
:10124c0001221a60c04641f60043c4f200231b6918
:10125c0001221340002bf6d141f60043c4f20023c7
:10126c0043f2c8229a83c04641f60043c4f20023dd
:10127c001b6901221340002bf6d140f25803c2f235
:10128c00000300221a60b2e0bb1d1b88cd2b2dd9a8
:10129c00bb1d1b8840f29912934227d840f2d80309
:1012ac00c2f2000301221a60c04641f60043c4f2a8
:1012bc0000231b6901221340002bf6d141f6004399
:1012cc00c4f2002346f290529a83c04641f6004382
:1012dc00c4f200231b6901221340002bf6d140f20b
:1012ec005803c2f2000300221a6080e0bb1d1b8869
:1012fc0040f29912934212d9bb1d1b8840f2652211
:10130c0093420cd840f25803c2f2000301221a6037
:10131c0040f26c03c2f2000301221a6067e0bb1dad
:10132c001b8840f2652293422dd9bb1d1b8840f2cd
:10133c003232934227d840f2d803c2f20003002283
:10134c001a60c04641f60043c4f200231b69012217
:10135c001340002bf6d141f60043c4f2002346f2b1
:10136c0090529a83c04641f60043c4f200231b6995
:10137c0001221340002bf6d140f25803c2f20003b5
:10138c0000221a6033e0bb1d1b8840f232329342bc
:10139c002dd9bb1d1b8840f2ff32934227d840f257
:1013ac00d803c2f2000300221a60c04641f6004383
:1013bc00c4f200231b6901221340002bf6d141f625
:1013cc000043c4f2002343f2c8229a83c04641f67c
:1013dc000043c4f200231b6901221340002bf6d1f9
:1013ec0040f25803c2f2000300221a60ffe7c04625
:1013fc00bd4602b080bd80b582b000af0200fb1dbf
:10140c001a70fb1d1b78180000f0cdfd031c002189
:10141c00c4f27f31181c00f0b2fc031c191cfe2016
:10142c00800500f0f2fd031c0021c4f2ea31181c07
:10143c0000f04afc031c181c00f0a3fd03009bb237
:10144c001800bd4602b080bd80b500af41f6004328
:10145c00c4f20003ec2240219950c04641f60043ef
:10146c00c4f20003ec229b5840221340002bf5d011
:10147c00c046bd4680bd80b500af43f20043c4f208
:10148c00002301221a60c04643f20043c4f2002339
:10149c009b6801229343002bf6d143f20043c4f224
:1014ac00002341f200721a6043f20043c4f200239d
:1014bc0000225a6143f20043c4f200230222c0f21c
:1014cc000b02da6343f20043c4f2002340f2d4125d
:1014dc001a6443f20043c4f200231a6843f2004337
:1014ec00c4f2002302210a431a60c04643f20043af
:1014fc00c4f200239b6802229343002bf6d1c04612
:10150c0043f20043c4f200239b680d4a1340002ba6
:10151c00f6d1c04643f20043c4f200239b68094a4b
:10152c001340002bf6d1c04643f20043c4f2002313
:10153c009b68054a1340002bf6d1c046bd4680bdc2
:10154c00fffefffffffdfffffff7ffff80b582b03f
:10155c0000af40f20043c4f2000301229a7140f242
:10156c000043c4f2000302229a7000e0c04640f22d
:10157c000043c4f200039b79dbb21a000123134031
:10158c00002bf3d040f20043c4f2000301229a7105
:10159c0045f20003c4f2001304225a6041f6000322
:1015ac00c4f2000302221a6241f20003c4f20003e7
:1015bc0000221a86c04641f20003c4f200031a69e5
:1015cc0080235b041a4080235b049a42f3d1fb1df9
:1015dc0000221a70fb1d1b789b021b041a0c41f293
:1015ec000003c4f2000340f200210a435a63c046d0
:1015fc0041f20003c4f200031a6980235b041a4011
:10160c0080235b049a42f3d141f20003c4f200033d
:10161c0002221a86c04641f20003c4f200031a6982
:10162c0080235b041a4080235b049a42f3d141f679
:10163c000043c4f20003196a41f60043c4f20003ec
:10164c0040f20712c0f201020a431a6200e0c046df
:10165c0041f60043c4f200035b6804221340002be4
:10166c00f5d141f60043c4f20003f0229a5841f63a
:10167c000043c4f2000340210a43f0215a50c046f3
:10168c0041f60043c4f20003f0229b584022134061
:10169c00402bf5d1c046bd4602b080bd80b500af31
:1016ac0041f60043c4f20003dc229a5841f6004391
:1016bc00c4f2000340210a43dc215a50c04641f6d3
:1016cc000043c4f20003dc229b589b01002bf6d094
:1016dc0041f60043c4f200231a6841f60043c4f2f9
:1016ec00002301210a431a60c04641f60043c4f2ac
:1016fc0000231b6901221340002bf6d141f6004256
:10170c00c4f2002241f60043c4f2002312681a60ae
:10171c0041f60043c4f200231a6841f60043c4f2b8
:10172c00002310210a431a6041f60043c4f200233f
:10173c001a6841f60043c4f2002340f200710a43d8
:10174c001a6041f60043c4f200231b7bdab241f667
:10175c000043c4f2002301210a43d2b21a7341f6aa
:10176c000043c4f200239b8b9ab241f60043c4f2af
:10177c00002343f2c8210a4392b29a8341f60043f4
:10178c00c4f200231a6841f60043c4f2002302217c
:10179c000a431a60c04641f60043c4f200231b6999
:1017ac0002221340002bf6d1c046bd4680bd80b549
:1017bc0000af00f007f800f016f800f02af8c04669
:1017cc00bd4680bd80b500affff73efefff7befe05
:1017dc00fef7d8fefef74afffff760fffff74bfe60
:1017ec00c046bd4680bd80b500affef79afdfef742
:1017fc00d6fdfef711fefef753fdc046bd4680bd7b
:10180c0080b500affef74afefef782fec046bd462d
:10181c0080bd80b500af40f60003c4f200035a69e6
:10182c0040f60003c4f2000340f200410a435a613f
:10183c0041f60043c4f2000390224021995000f07d
:10184c0063f800f01ef9c046bd4680bd90b583b06c
:10185c0000af42f60023c4f200035a6942f600239b
:10186c00c4f2000301210a435a61fef71bffc04674
:10187c00fef745ff03001a0001235340dbb2002b97
:10188c00f6d1bc1dfef730ff03002380bb1d1b8867
:10189c001800fff789fbc046bd4603b090bd90b55c
:1018ac0083b000af42f60023c4f200035a6942f63b
:1018bc000023c4f2000302210a435a61fef7f2fe30
:1018cc00c046fef71cff03001a0001235340dbb295
:1018dc00002bf6d1bc1dfef707ff03002380bb1db8
:1018ec001b881800fff79efc42f60023c4f200038d
:1018fc005a6942f60023c4f2000302210a435a61da
:10190c00c046bd4603b090bd80b500affff778ff71
:10191c0042f60023c4f200031b78dab242f600232d
:10192c00c4f2000301210a43d2b21a70c04642f637
:10193c000023c4f200035b6801221340012bf6d094
:10194c0042f60023c4f20003da6942f60023c4f223
:10195c00000302210a43da6142f60023c4f20003b9
:10196c00da6942f60023c4f2000308210a43da6163
:10197c0042f60023c4f20003da6942f60023c4f2f3
:10198c00000320210a43da6142f60023c4f200036b
:10199c00da6942f60023c4f2000380210a43da61bb
:1019ac0042f60023c4f200031a6b42f60023c4f281
:1019bc00000301210a431a6342f60023c4f2000318
:1019cc001a6b42f60023c4f2000302210a431a6385
:1019dc0042f60023c4f20003596b42f60023c4f212
:1019ec000003ff22c0f201020a435a6342f60023ad
:1019fc00c4f200031a6942f60023c4f20003012169
:101a0c000a431a6142f60023c4f200031a6942f633
:101a1c000023c4f2000302210a431a6142f6002398
:101a2c00c4f200031b78dab242f60023c4f20003be
:101a3c0002210a43d2b21a70c04642f60023c4f205
:101a4c0000035b6802221340022bf6d042f60023ff
:101a5c00c4f200035a6942f60023c4f200030121c8
:101a6c000a435a6142f60023c4f200035a6942f653
:101a7c000023c4f2000302210a435a61c046bd464a
:101a8c0080bd80b500afbff35f8f62b6022103202b
:101a9c00fef78ffb0320fef76bfb02210420fef701
:101aac0088fb0420fef764fbc046bd4680bd80b5b4
:101abc0082b000af78603960fff779fe40f2d8034e
:101acc00c2f200031b681800fef7a1fef6e7c04641
:020000040000fa
:101adc000122d20703004b403cd430b4431a01d24c
:101aec00c01ac9184b004400240eff2c28d024b374
:101afc001b0e20d0e31a182b1ddc09021143c40d58
:101b0c00000210435d4219350a00aa40d209d9409f
:101b1c00451801d36d080234013ce405280a012163
:101b2c00c9072d062a438a4160414100090eff294d
:101b3c0001d3c00dc00530bc7047c00fc007fae719
:101b4c0042001823da41ff2af5d07f2000010c3027
:101b5c000005f0e7a4465140431a02d25340c01a84
:101b6c00c9184b00090211431b0e4400240eff2c14
:101b7c0040d083b15b421b19012b10d322d1c30d72
:101b8c004002401a10d3db050100400ac9059141ff
:101b9c005841644670472442fbd10020f9e7c30d3d
:101bac0040024900401af4d0002101314000fcd31e
:101bbc008c4204d95b1adb05400ac018e9e7180a05
:101bcc00c007e6e7192be4d801330c00d940dc41ff
:101bdc004c40012c4941c30d00021043441a01d45e
:101bec00a4006408013bdb05200a240694415841fb
:101bfc0064467047ff2b01d04102cad07f20000100
:061c0c000c300005c5e7e5
:020000040000fa
:021c1200fee7eb
:020000040000fa
:101c1400e0000020040000000100000000000000bb
:101c2400700000201c000000000000009400002050
:101c34004c000000010000000000003f0100000013
:101c44007a0000001f000000ce000000e500000044
:101c54007c000000160000004f000000e5000000ba
:101c64001600000016000000dd000000e500000082
:101c740010000000e90000006e00000001000000f8
:101c840001000000500000202000000000000000bf
:101c94008c00002004000000000000000000002070
:101ca400500000000000000090000020040000002c
:101cb40000000000e4000020040000000100000017
:101cc4000000000000000000000000006666666678
:020000040000fa
:101cd40030b405004d400124e407254042004b0088
:101ce400120e32d01b0e3cd0ff2a33d0ff2b3fd034
:101cf400d21800022043000a09022143090ac4b28f
:101d04004c43000ac3b24b43000a4843210a5b1800
:101d1400190a091801d44900013a080a7f3a2adb52
:101d2400fe2a0fd2d2051c43240601d001242143ec
:101d3400c9b280295041802901d14008400028437c
:101d440030bc7047ff20c005f9e71b0eff2b0ad0fb
:101d54002800f5e7400206d1ff2bf3d1490202d156
:101d6400f0e7ff2af4d17f2000010c300005e7e7fb
:101d74004902f8d1e6e743020132e9d15b120233aa
:061d8400e6d9d805e4e7f2
:020000040000fa
:101d8a0030b405004d400124e407254042004b00d1
:101d9a00120e26d01b0e34d0ff2a2dd0ff2b35d0a1
:101daa00d21a000220430902214343084908a00d20
:101dba005b1a02d2013a5b005b185b008b4200d3cc
:101dca005b1a4041f9d37f3222ddff2a06d2d205bf
:101dda00c91a8b425041284330bc7047ff20c005c6
:101dea00f9e71b0e03d0ff2b12d1490210d07f2036
:101dfa0000010c300005efe74002f8d1ff2bedd1ce
:101e0a00f5e7ff2aead14002f1d1e7e74902eed12c
:041e1a002800e1e7d4
:020000040000fa
:101e1e0040f20003c0f2000323b140f20003c0f20f
:101e2e000003984740f20003c0f2000323b140f2d2
:101e3e000003c0f20003984700f077f840f2000369
:101e4e00c0f200037f2293434ef60052cef2000200
:101e5e00936041f69d63c0f20003984740f2000381
:101e6e00c0f2000323b140f20003c0f20003984712
:101e7e0040f20003c0f2000323b140f20003c0f2af
:0e1e8e000003984700210020fff710fefee73a
:020000040000fa
:101e9c0000230e4a10b513600d4a0e4c13600e4a07
:101eac0013600e4a13600e4a13600e4a536213619c
:101ebc000133936000f095f800f093f80a4b9c42c4
:101ecc0000d310bd08cc9847f8e7c046900000201e
:101edc000c00002068010000080000200000002019
:0c1eec0004000020100000206c01000029
:020000040000fa
:101ef80010b5054c227832b9044b13b1044800e000
:101f080000bf0123237010bd7000002000000000f6
:101f180000000000034b10b51bb10349034800e063
:101f280000bf10bd00000000740000200000000089
:020000040000fa
:101f380010b50948016811b9436803b910bd040018
:101f48008368064a9bb20c349b009b584268200069
:101f5800984780002018ede7141c0000f01f0000cf
:020000040000fa
:101f6800c20f12029d3201000cd001d5494202d4a1
:101f7800013a4900fcd5d205080a0906494100d3af
:061f8800012950417047e1
:020000040000fa
:101f8e0041000dd2090e7f390ad449421f3105d4c2
:101f9e0000020122d2071043c8407047c81770478d
:041fae000020704758
:020000040000fa
:101fb2009d2201000ad002d4013a4900fcd5d20583
:0e1fc200080a0906494100d301295041704721
:020000040000fa
:101fd000002310b5934206d103201840421e9041c1
:0e1fe0009b08c01810bdc45ccc540133f2e75e
:020000040000fa
:021fee0070473a
:020000040000fa
:101ff00005200000d11f000027200000272000003e
:042000002720000095
:020000040000fa
:102004008a18914201d10020704700230b700131de
:02201400f7e7ec
:020000040000fa
:102016000122d207514041f6e123c0f200031847de
:020000040000fa
:0420260000207047df
:00000001FF
