:020000040000fa
:10000000f87f002075120000f3120000f3120000c8
:1000100000000000000000000000000000000000e0
:10002000000000000000000000000000f3120000cb
:100030000000000000000000f3120000f3120000b6
:10004000f3120000f3120000f3120000150d00007f
:10005000670d0000f3120000f3120000f31200001d
:10006000f3120000f3120000f3120000f31200007c
:10007000f3120000f3120000f3120000f31200006c
:10008000f3120000f3120000f3120000f31200005c
:10009000f3120000f3120000f3120000f31200004c
:1000a000f3120000f3120000f3120000f31200003c
:1000b000f3120000f3120000f3120000f31200002c
:1000c000f3120000f3120000f3120000f31200001c
:1000d000f3120000f3120000f3120000f31200000c
:1000e000f3120000f3120000f3120000f3120000fc
:1000f000f3120000f3120000f3120000f3120000ec
:10010000f3120000f3120000f3120000f3120000db
:10011000f3120000f3120000f3120000f3120000cb
:10012000f3120000f3120000f3120000f3120000bb
:10013000f3120000f3120000f3120000f3120000ab
:10014000f3120000f3120000f3120000f31200009b
:0c015000f3120000f3120000f312000094
:020000040000fa
:10015c00f8b5c046f8bc08bc9e4670477513000045
:10016c00f8b5c046f8bc08bc9e4670475113000059
:020000040000fa
:10017c0080b582b000af0200fb1d1a70fb1d1b780e
:10018c007f2b12d8fb1d1b781a001f231a4011005d
:10019c004ef20013cef20003fa1d127852b252093d
:1001ac000120884001009200d150c046bd4602b0eb
:1001bc0080bd90b583b000af02003960fb1d1a7092
:1001cc00fb1d1b787f2b2fd84ef20013cef20003b1
:1001dc00fa1d127852b29208c0329200d358fa1d0e
:1001ec001278110003220a40d200ff2191400a002c
:1001fc00d2431a4010003b689b01ff221a40fb1da2
:10020c001b78190003230b40db009a4011004ef2bf
:10021c000013cef20003fa1d127852b29208014379
:10022c00c0329200d15037e04ef60053cef20003ac
:10023c00fa1d127811000f220a40083a9208063271
:10024c0092009b1804331b68fa1d127811000322cc
:10025c000a40d200ff2191400a00d2431a401000fc
:10026c003b689b01ff221a40fb1d1b7819000323de
:10027c000b40db009a404ef60053cef20003f91d02
:10028c0009780c000f2121400839890802430631f6
:10029c0089005b1804331a60c046bd4603b090bd9c
:1002ac0080b500af43f20023c4f20003c2229b5c72
:1002bc00dab243f20023c4f2000301210a43d1b2a3
:1002cc00c222995443f20023c4f20003b1229b5c76
:1002dc00dab243f20023c4f2000301210a43d1b283
:1002ec00b1229954c046bd4680bd80b500af43f2e3
:1002fc000023c4f200039a6843f20023c4f2000303
:10030c0008210a439a6043f20023c4f200035a699d
:10031c0043f20023c4f2000308210a435a6143f25a
:10032c000023c4f2000343229b5cdab243f20023a5
:10033c00c4f2000303210a43d1b24322995443f27d
:10034c000023c4f2000331229b5cdab243f2002397
:10035c00c4f20003702149420a43d1b231229954ac
:10036c00c046bd4680bd80b500af43f20023c4f249
:10037c0000039a6843f20023c4f2000340210a43ad
:10038c009a6043f20023c4f200035a6943f200233b
:10039c00c4f2000340210a435a6143f20023c4f221
:1003ac00000346229b5cdab243f20023c4f2000342
:1003bc0003210a43d1b24622995443f20023c4f2da
:1003cc00000333229b5cdab243f20023c4f2000335
:1003dc0009210a43d1b233229954c046bd4680bd8f
:1003ec0080b500af43f20023c4f2000388229a5870
:1003fc0043f20023c4f2000308210a4388215a5017
:10040c0043f20023c4f2000394229a5843f20023cf
:10041c00c4f2000308210a4394215a5043f20023ea
:10042c00c4f20003c3229b5cdab243f20023c4f291
:10043c00000303210a43d1b2c322995443f200238f
:10044c00c4f20003b1229b5cdab243f20023c4f283
:10045c000003702149420a43d1b2b1229954c046db
:10046c00bd4680bd80b500af43f20023c4f200034b
:10047c005a6843f20023c4f2000301210a435a6074
:10048c0043f20023c4f2000340229b5cdab243f235
:10049c000023c4f2000307210a43d1b2402299542d
:1004ac0043f20023c4f200039a6943f20023c4f21e
:1004bc00000301210a439a6143f20022c4f20002b4
:1004cc0043f20023c4f200033021525cd1b230223b
:1004dc009954c046bd4680bd80b500af43f20023a1
:1004ec00c4f200035a6843f20023c4f20003022151
:1004fc000a435a6043f20023c4f2000341229b5c7e
:10050c00dab243f20023c4f2000307210a43d1b24a
:10051c004122995443f20023c4f200039a6943f236
:10052c000023c4f2000302210a439a6143f2002221
:10053c00c4f2000243f20023c4f200033021525ce7
:10054c00d1b230229954c046bd4680bd80b500afb3
:10055c0043f60003c4f2002301221a70c04643f68e
:10056c000003c4f200231b8c9bb21a00012313401e
:10057c00012bf4d043f60003c4f2002302225a707c
:10058c0043f60003c4f2002303225a7343f600031c
:10059c00c4f2002305229a7043f60003c4f2002330
:1005ac0000221a8143f60003c4f2002320225a8150
:1005bc0043f60003c4f2002307229a71c04643f6a7
:1005cc000003c4f200231b8c9bb2002bf7d1c04656
:1005dc00bd4680bd80b500af43f60003c4f20023d6
:1005ec001b78dab243f60003c4f2002302210a435b
:1005fc00d2b21a70c04643f60003c4f200231b8c1f
:10060c009bb2002bf7d1c046bd4680bd80b500af74
:10061c0043f60003c4f200231b7edab243f6000358
:10062c00c4f2002302210a43d2b21a76c04643f622
:10063c000003c4f200231b8c9bb21a0040f200434f
:10064c00134040f200429342f1d0c046bd4680bdfb
:10065c0080b500af43f60003c4f200239b8c9bb221
:10066c001800bd4680bd80b582b000af43f60003d4
:10067c00c4f200239b79dbb21a0001231a40fb1d44
:10068c00511e8a411a70fb1d1b782bb143f60003d7
:10069c00c4f2002301229a71fb1d1b781800bd4681
:1006ac0002b080bd80b584b000af78600de000234f
:1006bc00fb6002e0fb680133fb60fb6840f66022e4
:1006cc009342f7dd7b68013b7b607b68002beedca3
:1006dc00c046bd4604b080bd80b582b000af786026
:1006ec00396040f27403c2f2000300221a6084e005
:1006fc0040f27403c2f20003196840f28402c2f2a1
:10070c0000020b005b005b189b009b58180000f06c
:10071c0083fe031c7968181c00f0a9fc031c181c30
:10072c0000f08dfe0300dbb2180000f059f9030055
:10073c001a0043f20043c4f200239a6440f274039b
:10074c00c2f20003196840f28402c2f200020b00ec
:10075c005b005b189b00d31804331b68180000f077
:10076c005bfe031c7968181c00f081fc031c181c30
:10077c0000f065fe0300dbb2180000f031f9030055
:10078c001a0043f20043c4f200235a6440f274038b
:10079c00c2f20003196840f28402c2f200020b009c
:1007ac005b005b189b00d31808331b68180000f023
:1007bc0033fe031c7968181c00f059fc031c181c30
:1007cc0000f03dfe0300dbb2180000f009f9030055
:1007dc001a0043f20043c4f200231a653b68180068
:1007ec00fff760ff40f27403c2f200031b685a1c4f
:1007fc0040f27403c2f200031a6040f27403c2f2b6
:10080c0000031b68042b00dc72e7c046bd4602b037
:10081c0080bd80b500af40f2e830fff743ff40f2f7
:10082c00c003c2f200034cf6cd42c3f64c521a6020
:10083c00c046bd4680bd80b582b000af0200bb1d76
:10084c001a8040f28003c2f200031b68012b32d1e4
:10085c0040f2c003c2f200031b684cf6cd41c3f654
:10086c004c61181c00f068fb031c1a1c40f2c003fe
:10087c00c2f200031a6040f2c003c2f200031b680c
:10088c0046f26661c3f66671181c00f094fd030015
:10089c0003b948e040f2c003c2f2000346f26662bc
:1008ac00c3f666721a6040f28003c2f200030122a2
:1008bc0052421a6037e040f28003c2f200031b6818
:1008cc00013330d140f2c003c2f200031b6849f679
:1008dc009a11c3f69961181c00f0f5fd031c1a1c43
:1008ec0040f2c003c2f200031a6040f2c003c2f22d
:1008fc0000031b6849f69a11c3f69961181c00f0a5
:10090c0041fd030003b90ee040f2c003c2f2000344
:10091c0049f69a12c3f699621a6040f28003c2f249
:10092c00000301221a60c046bd4602b080bd80b5ee
:10093c0082b000af786040f26c03c2f200031b6817
:10094c0040f26c03c2f200031b68cd2b44d940f279
:10095c006c03c2f200031b68cd2b08d940f26c0368
:10096c00c2f200031b6840f29912934234d940f250
:10097c006c03c2f200031b6840f2991293420ad92d
:10098c0040f26c03c2f200031b6840f265229342f2
:10099c0001d8c04620e040f26c03c2f200031b6891
:1009ac0040f26522934208d940f26c03c2f2000374
:1009bc001b6840f2323293420ed940f26c03c2f201
:1009cc0000031b6840f23232934205d940f26c03ab
:1009dc00c2f200031b68ffe7c046bd4602b080bdf3
:1009ec0080b582b000af0200fb1d1a70fb1d1b7896
:1009fc00180000f036fd031c0021c4f27f31181cd6
:100a0c0000f0e8fb031c191cfe20800500f05bfdc8
:100a1c00031c0021c4f2ea31181c00f028fb031c53
:100a2c00181c00f00cfd03009bb21800bd4602b070
:100a3c0080bd80b500af41f60043c4f20003ec2248
:100a4c0040219950c04641f60043c4f20003ec2209
:100a5c009b5840221340002bf5d0c046bd4680bdac
:100a6c0080b500af43f20043c4f2002301221a60a8
:100a7c00c04643f20043c4f200239b680122934317
:100a8c00002bf6d143f20043c4f2002341f2007272
:100a9c001a6043f20043c4f2002300225a6143f26d
:100aac000043c4f200230222c0f20b02da6343f2c9
:100abc000043c4f2002340f2d4121a6443f2004300
:100acc00c4f200231a6843f20043c4f2002302214b
:100adc000a431a60c04643f20043c4f200239b68e9
:100aec0002229343002bf6d1c04643f20043c4f2da
:100afc0000239b680d4a1340002bf6d1c04643f2ed
:100b0c000043c4f200239b68094a1340002bf6d122
:100b1c00c04643f20043c4f200239b68054a1340cd
:100b2c00002bf6d1c046bd4680bdc046fffeffff80
:100b3c00fffdfffffff7ffff80b582b000af40f273
:100b4c000043c4f2000301229a7140f20043c4f244
:100b5c00000302229a7000e0c04640f20043c4f247
:100b6c0000039b79dbb21a0001231340002bf3d056
:100b7c0040f20043c4f2000301229a7145f20003d3
:100b8c00c4f2001304225a6041f60003c4f20003bd
:100b9c0002221a6241f20003c4f2000300221a86f8
:100bac00c04641f20003c4f200031a6980235b04bf
:100bbc001a4080235b049a42f3d1fb1d00221a7069
:100bcc00fb1d1b789b021b041a0c41f20003c4f2a0
:100bdc00000340f200210a435a63c04641f200036d
:100bec00c4f200031a6980235b041a4080235b045f
:100bfc009a42f3d141f20003c4f2000302221a8696
:100c0c00c04641f20003c4f200031a6980235b045e
:100c1c001a4080235b049a42f3d141f60043c4f29c
:100c2c00000340f20712c0f201021a6200e0c04653
:100c3c0041f60043c4f200035b6804221340002b0e
:100c4c00f5d141f60043c4f20003f0224021995043
:100c5c00c04641f60043c4f20003f0229b584022e8
:100c6c001340402bf5d1c046bd4602b080bd80b5c7
:100c7c0000af00f007f800f014f800f028f8c046b8
:100c8c00bd4680bd80b500affff7d3fefff754ff24
:100c9c00fff75cfcfff79efcfff7e2fec046bd468b
:100cac0080bd80b500affff720fbfff75cfbfff7c3
:100cbc0097fbfff7f5fac046bd4680bd80b500af87
:100ccc00fff7d0fbfff708fcc046bd4680bd80b5e2
:100cdc0000af40f60003c4f200035a6940f600036b
:100cec00c4f2000340f200410a435a6141f600434a
:100cfc00c4f2000390224021995000f033f800f028
:100d0c00eef8c046bd4680bd90b583b000af42f64c
:100d1c000023c4f200035a6942f60023c4f2000314
:100d2c0001210a435a61fff771fcc046fff79bfc97
:100d3c0003001a0001235340dbb2002bf6d1bc1d7b
:100d4c00fff786fc03002380bb1d1b881800fff7f0
:100d5c0072fdc046bd4603b090bd80b500afc04625
:100d6c00bd4680bd80b500affff7a8ff42f600235b
:100d7c00c4f200031b78dab242f60023c4f200037b
:100d8c0001210a43d2b21a70c04642f60023c4f2c3
:100d9c0000035b6801221340012bf6d042f60023be
:100dac00c4f20003da6942f60023c4f20003022104
:100dbc000a43da6142f60023c4f20003da6942f610
:100dcc000023c4f2000308210a43da6142f600232f
:100ddc00c4f20003da6942f60023c4f200032021b6
:100dec000a43da6142f60023c4f20003da6942f6e0
:100dfc000023c4f2000380210a43da6142f6002387
:100e0c00c4f200031a6b42f60023c4f20003012162
:100e1c000a431a6342f60023c4f200031a6b42f62b
:100e2c000023c4f2000302210a431a6342f6002392
:100e3c00c4f20003596b42f60023c4f20003ff22f4
:100e4c00c0f201020a435a6342f60023c4f20003c3
:100e5c001a6942f60023c4f2000301210a431a6105
:100e6c0042f60023c4f200031a6942f60023c4f2ce
:100e7c00000302210a431a6142f60023c4f2000364
:100e8c001b78dab242f60023c4f2000302210a43b3
:100e9c00d2b21a70c04642f60023c4f200035b685b
:100eac0002221340022bf6d042f60023c4f20003b8
:100ebc005a6942f60023c4f2000301210a435a6125
:100ecc0042f60023c4f200035a6942f60023c4f22e
:100edc00000302210a435a61c046bd4680bd80b55d
:100eec0000afbff35f8f62b602210320fff761f9f9
:100efc000320fff73df902210420fff75af90420e3
:100f0c00fff736f9c046bd4680bd80b582b000af54
:100f1c0078603960fff7abfe40f2c003c2f2000309
:100f2c001a6840f2c403c2f200031b681900101cbb
:080f3c00fff7d2fbf0e7c0460d
:020000040000fa
:100f44000122d20703004b403cd430b4431a01d2ef
:100f5400c01ac9184b004400240eff2c28d024b317
:100f64001b0e20d0e31a182b1ddc09021143c40dfb
:100f7400000210435d4219350a00aa40d209d94043
:100f8400451801d36d080234013ce405280a012107
:100f9400c9072d062a438a4160414100090eff29f1
:100fa40001d3c00dc00530bc7047c00fc007fae7bd
:100fb40042001823da41ff2af5d07f2000010c30cb
:100fc4000005f0e7a4465140431a02d25340c01a28
:100fd400c9184b00090211431b0e4400240eff2cb8
:100fe40040d083b15b421b19012b10d322d1c30d16
:100ff4004002401a10d3db050100400ac9059141a3
:101004005841644670472442fbd10020f9e7c30de0
:1010140040024900401af4d0002101314000fcd3c1
:101024008c4204d95b1adb05400ac018e9e7180aa8
:10103400c007e6e7192be4d801330c00d940dc41a2
:101044004c40012c4941c30d00021043441a01d401
:10105400a4006408013bdb05200a2406944158419e
:1010640064467047ff2b01d04102cad07f200001a3
:061074000c300005c5e789
:020000040000fa
:10107a0030b405004d400124e407254042004b00ee
:10108a00120e32d01b0e3cd0ff2a33d0ff2b3fd09a
:10109a00d21800022043000a09022143090ac4b2f5
:1010aa004c43000ac3b24b43000a4843210a5b1867
:1010ba00190a091801d44900013a080a7f3a2adbb9
:1010ca00fe2a0fd2d2051c43240601d00124214353
:1010da00c9b280295041802901d1400840002843e3
:1010ea0030bc7047ff20c005f9e71b0eff2b0ad062
:1010fa002800f5e7400206d1ff2bf3d1490202d1bd
:10110a00f0e7ff2af4d17f2000010c300005e7e761
:10111a004902f8d1e6e743020132e9d15b12023310
:06112a00e6d9d805e4e758
:020000040000fa
:10113000c8000020040000000100000000000000c2
:10114000500000201c000000000000008000002073
:101150004800000001000000010000007a000000cb
:101160001f000000ce000000e50000007c00000031
:10117000160000004f000000e5000000160000000f
:1011800016000000dd000000e50000001000000077
:10119000e90000006e0000000000003f9001000028
:1011a0006c00002010000000000000000000002083
:1011b00050000000000000007c000020040000003f
:1011c00000000000cc00002004000000010000002e
:1011d0000000000000000000000000006666666677
:020000040000fa
:1011e00030b405004d400124e407254042004b0087
:1011f000120e26d01b0e34d0ff2a2dd0ff2b35d057
:10120000d21a000220430902214343084908a00dd5
:101210005b1a02d2013a5b005b185b008b4200d381
:101220005b1a4041f9d37f3222ddff2a06d2d20574
:10123000c91a8b425041284330bc7047ff20c0057b
:10124000f9e71b0e03d0ff2b12d1490210d07f20eb
:1012500000010c300005efe74002f8d1ff2bedd183
:10126000f5e7ff2aead14002f1d1e7e74902eed1e2
:041270002800e1e78a
:020000040000fa
:1012740040f20003c0f2000323b140f20003c0f2c5
:101284000003984740f20003c0f2000323b140f288
:101294000003c0f20003984700f0aaf840f20003ec
:1012a400c0f200037f2293434ef60052cef20002b6
:1012b400936041f2f523c0f20003984740f2000323
:1012c400c0f2000323b140f20003c0f200039847c8
:1012d40040f20003c0f2000323b140f20003c0f265
:0e12e4000003984700210020fff713fefee7ed
:020000040000fa
:0212f200fee715
:020000040000fa
:1012f40000230e4a10b513600d4a0e4c13600e4abb
:1013040013600e4a13600e4a13600e4a536213614f
:101314000133936000f0c7f800f0c5f80a4b9c4213
:1013240000d310bd08cc9847f8e7c0467c000020e5
:101334000c000020680100000800002000000020cc
:0c13440004000020100000206c010000dc
:020000040000fa
:1013500010b5054c227832b9044b13b1044800e0b3
:1013600000bf0123237010bd5000002000000000ca
:1013700000000000034b10b51bb10349034800e017
:1013800000bf10bd0000000054000020000000005d
:020000040000fa
:10139000012212064300da4211d84b00da420ed87d
:1013a00002000a43520008d003d28142804101303a
:1013b000704788428041013070470120704700200b
:0213c000704774
:020000040000fa
:1013c200012212064300da4211d84b00da420ed84b
:1013d20002000a43520008d003d288428041013001
:1013e20070478142804101307047012070470020e0
:0213f200704742
:020000040000fa
:1013f40010b50948016811b9436803b910bd040068
:101404008368064a9bb20c349b009b5842682000b8
:10141400984780002018ede730110000ac1400005c
:020000040000fa
:10142400c20f12029d3201000cd001d5494202d4f0
:10143400013a4900fcd5d205080a0906494100d3fe
:0614440001295041704730
:020000040000fa
:10144a0041000dd2090e7f390ad449421f3105d411
:10145a0000020122d2071043c8407047c8177047dc
:04146a0000207047a7
:020000040000fa
:10146e009d2201000ad002d4013a4900fcd5d205d2
:0e147e00080a0906494100d301295041704770
:020000040000fa
:10148c00002310b5934206d103201840421e904110
:0e149c009b08c01810bdc45ccc540133f2e7ad
:020000040000fa
:0214aa00704789
:020000040000fa
:1014ac00c11400008d140000e3140000e3140000cc
:0414bc00e314000035
:020000040000fa
:1014c0008a18914201d10020704700230b7001312e
:0214d000f7e73c
:020000040000fa
:1014d2000122d207514040f64973c0f20003184777
:020000040000fa
:0414e200002070472f
:00000001FF
